S31508000000384A00209D010008E3220008DD1F000889
S31508000010E1220008E9030008B92F000800000000E3
S31508000020000000000000000000000000012A00088F
S31508000030D104000800000000E5220008052A00088F
S31508000040B7010008B7010008B7010008B7010008A2
S31508000050B7010008B7010008B7010008B701000892
S31508000060B7010008B7010008B7010008B701000882
S31508000070B701000809040008B701000815040008BC
S3150800008021040008B7010008B7010008B7010008F5
S31508000090B7010008B7010008B7010008B701000852
S315080000A0B7010008B7010008B7010008B701000842
S315080000B0B7010008B7010008B7010008B701000832
S315080000C0B7010008B7010008B7010008B701000822
S315080000D0B7010008B7010008B7010008B701000812
S315080000E0B7010008B7010008B7010008B701000802
S315080000F0B7010008B7010008B7010008B7010008F2
S31508000100B7010008B7010008B7010008B7010008E1
S31508000110B7010008B7010008B7010008B7010008D1
S31508000120B7010008B7010008B7010008B7010008C1
S31508000130B7010008B7010008B7010008B7010008B1
S31508000140B7010008B7010008B7010008B7010008A1
S31508000150B7010008B7010008B7010008B701000891
S31508000160B7010008B7010008B7010008B701000881
S31508000170B7010008B7010008B70100080000000031
S31508000180B7010008B7010008DFF80CD000F07AF8CC
S3150800019000480047FB3E0008384A002006488047CA
S315080001A006480047FEE7FEE7FEE7FEE7FEE7FEE74E
S315080001B0FEE7FEE7FEE7FEE7C52A00088901000814
S315080001C02DE9F05F0546002092469B46884606467E
S315080001D0814640241BE0284641464746224600F011
S315080001E041F853465A46C01A914110D3114618464B
S315080001F0224600F028F82D1A67EB01084F462246DA
S315080002000120002100F01FF817EB00094E41201EBF
S31508000210A4F10104DFDC484631462A464346BDE8D8
S31508000220F09FD2B201E000F8012B491EFBD27047BD
S315080002300022F6E710B513460A4604461946FFF7A4
S31508000240F0FF204610BD202A04DB203A00FA02F10E
S31508000250002070479140C2F1200320FA03F31943A6
S3150800026090407047202A04DB203A21FA02F0002148
S31508000270704721FA02F3D040C2F1200291400843A8
S3150800028019467047064C074D06E0E06840F0010342
S3150800029094E8070098471034AC42F6D3FFF778FF86
S315080002A0C0420008E04200082DE9F047ADF5167D8A
S315080002B0002244A1444803F07EFE30B1002241A149
S315080002C0104603F089F901F08BFE01223FA168462A
S315080002D003F0AEF9404E4FF47A7990B100F014FC71
S315080002E0002238A1104603F077F9B6F80900ADF8F0
S315080002F03002F07A8DF8320238498C9801F07EFE89
S3150800030056E04FF480673846039D03F00DFE82469B
S31508000310142190A8FFF78CFF00209090032092905C
S31508000320062093900220949000F036FC002844D1D1
S3150800033095A990A800F09CFB00283ED1B846002459
S31508000340274F0CE08DAB42465146684603F0C3FE84
S315080003505146E0198D9A00F0EDF98D980444AC42A7
S31508000360F0D3B6F80300ADF8300270798DF8320292
S315080003701A498C9801F042FE1A4E00244FF4005593
S315080003802946304600F016FD642000F05FFB641C29
S31508000390E4B2062CF4D3684602F0B6FE504603F0E3
S315080003A0A1FC00F0B1FB002206A1104603F014F9E7
S315080003B0484600F04BFB01F013FE0DF5167DBDE82F
S315080003C0F087000000000000A41F002064616E6A28
S315080003D069652E62696E0000000000208400002016
S315080003E000C0000800080240FEE7000010B5012220
S315080003F01146044800F0E6FCBDE81040012000F074
S3150800040025BB000000040240014800F0ADB9000019
S31508000410A4280020014800F0A7B9000004290020FC
S31508000420014800F0A1B900006429002001681823DA
S31508000430CAB2103AB2FBF3F2054B6FF30901032A6D
S315080004409B5CC36500D9091D816508467047000095
S31508000450B642000810B5014600208B698A6A4FF03B
S31508000460C07453B1B3F5005F15D072B1012A0CD030
S31508000470022A0AD0032A09D104E01AB1012A06D0B1
S31508000480022A03D1C96AC90100D5012010BDC96A6B
S31508000490A142FAD010BD002AF7D0012AF2D0022ACA
S315080004A0F3D0032AF3D010BD30B50468256825F4C7
S315080004B080252560046863608368402B036803D041
S315080004C099600068C26030BD9A600068C16030BD3E
S315080004D0704772B6FEE70022AFF3008030B50E4BC8
S315080004E0054601205C7A002C14D1587A1C54587A97
S315080004F003EB800045605D7A03F108002A54587AB8
S31508000500421C5A72303008703A2048702F20887082
S31508000510CC70002030BD00002C2A0020002229B112
S3150800052001291AD002291BD04FF440720E490B68D4
S3150800053023F440730B600B6813430B600A6822F0C0
S3150800054078020A600A68022303EBC00002430A60C5
S31508000550086840F48030086070474FF48072E5E719
S315080005604FF40072E2E70000103C024013480168AD
S3150800057089050FD5016821F400710160016841F40D
S3150800058000610160016821F400610160016841F4BD
S3150800059000710160016849050FD5016821F4806181
S315080005A00160016841F480510160016821F48051BD
S315080005B00160016841F4806101607047003C0240B7
S315080005C008490A6822F440720A600A6842F004027E
S315080005D00A600A684FF4803343EA002002430A603F
S315080005E070470000103C0240064A136823F4407323
S315080005F0136013681360136843F0010313600170F6
S3150800060070470000103C0240094910B50C6824F4F4
S3150800061040740C600C6844F440740C600C6844F038
S3150800062001040C600260BFF36F8F436010BD0000C9
S31508000630103C0240074A136823F44073136013689A
S3150800064043F480731360136843F001031360018059
S3150800065070470000103C0240074A136823F44073B1
S315080006601360136843F400731360136843F00103BF
S315080006701360016070470000103C02401749086883
S31508000680C206174805D5C26942F01002C261102297
S315080006900A600A68920605D5C26942F00802C26174
S315080006A020220A600A68520605D5C26942F0040289
S315080006B0C26140220A600A68120605D5C26942F07C
S315080006C00202C26180220A600A68920705D5C269D9
S315080006D042F02002C2610220086070470C3C0240CA
S315080006E03800002070B5114904460020C86100F0A2
S315080006F06FFB06460E4D09E0601C07D024B100F0DA
S3150800070067FB801BA04201D9032070BD2868C0037F
S31508000710F2D42868C00701D001202860286810F0A4
S31508000720F200F2D0FFF7AAFF012070BD38000020C2
S315080007300C3C02402DE9F041D21C97080C460546B0
S3150800074000260CE0002329460220226800F0E6F97C
S3150800075010B10120BDE8F081241D2D1D761CBE4276
S31508000760F0D30020F6E700002DE9F84304464FF0E1
S315080007700009CDF8009063484FF41651A56D00683E
S31508000780B0FBF1F72E6894F85C10082000FA01F126
S3150800079031420FD021680A6852070BD50A6822F041
S315080007A004020A6094F85C108840A860606D40F006
S315080007B00100606594F85C104FF0010808FA01F032
S315080007C0304208D021684969090604D5A860606DD9
S315080007D040F00200606594F85C10042088403042BE
S315080007E008D021680968890704D5A860606D40F0BB
S315080007F00400606594F85C1010208840304218D0D8
S3150800080021680968090714D5A860206801684903A2
S3150800081004D50068000308D5A16C07E00168C9057E
S3150800082003D4016821F008010160216C09B1204652
S31508000830884794F85C1020208840304231D02168DF
S315080008400968C9062DD5A86094F8350005282068DA
S31508000850016806D0490347D5006800031DD4616CBA
S315080008601CE021F0160101602068416921F0800131
S315080008704161206C08B9A06C20B12068016821F09C
S315080008800801016094F85C103F208840A86084F84D
S31508000890358084F83490216D1FE0E16B09B120465C
S315080008A08847606D00282BD0606DC00714D00520DE
S315080008B084F835002068016821F00101016000987C
S315080008C0401C0090B84203D820680068C007F6D1DB
S315080008D084F8358084F83490E16C002910D001B092
S315080008E02046BDE8F04308470168C905D5D4016824
S315080008F021F01001016084F8358084F83490CCE743
S31508000900BDE8F883280000202DE9F041044600F0F0
S315080009105FFA06465CB1022084F83500002584F8A3
S3150800092034502068016821F0010101600DE00120C2
S31508000930BDE8F08100F04CFA801B052805D9202077
S315080009406065032084F83500F2E720680068C00770
S31508000950F0D12268116820480140D4E90103184300
S31508000960D4E903363343184363691843A369184324
S31508000970E3691843236A18430843616A042903D1C3
S31508000980D4E90B1319430843106020684069666A66
S3150800099020F0070130460E43012704280CD1A06A2F
S315080009A00643E06A40B12046FFF754FD20B14020D7
S315080009B0606584F83570BAE7206846612046FFF717
S315080009C035FD94F85C203F2191408160656584F887
S315080009D035700020ACE700003F8010F02DE9F041AB
S315080009E00446866D90F83400002501280DD00120B4
S315080009F084F8340094F835700020012F07D084F865
S31508000A00340002252846BDE8F0810220FBE70227CC
S31508000A1084F8357060652046FFF746FD94F85C104B
S31508000A203F208840B0602068016841F016010160E7
S31508000A30206C20B12068016841F008010160206837
S31508000A40016841F001010160DCE7000070B5044669
S31508000A5000F0BEF90546601C02D00448007804443C
S31508000A6000F0B6F9401BA042FAD370BD2C00002056
S31508000A702DE9F047044622480F46017E01290AD08F
S31508000A800121804601764CF250394846FFF72AFE86
S31508000A90020003D02FE00220BDE8F0874FF0FF30B8
S31508000AA038602068174D012801D0A6681CE0207C14
S31508000AB06168FFF785FD4846FFF714FE0246286879
S31508000AC020F00400286014E0217C3046FFF726FD5C
S31508000AD04846FFF707FE0200286820F07A002860DB
S31508000AE001D03E6005E0761CD4E902100844B04205
S31508000AF0EAD8FFF73BFD002188F818101046CBE727
S31508000B0038000020103C02400348016841F00041CB
S31508000B100160002070470000103C02402DE9F047B4
S31508000B201B4E05461446307E1F468946012808D0C6
S31508000B30012030764CF250384046FFF7D3FD18B105
S31508000B4014E00220BDE8F0879DB1012D16D0022DD4
S31508000B5019D022463B464846FFF756FD4046FFF762
S31508000B60C1FD0C490A6822F001020A6000213176AB
S31508000B70E8E7E1B24846FFF737FDEFE7A1B2484696
S31508000B80FFF758FDEAE721464846FFF765FDE5E722
S31508000B9038000020103C0240074900200A68002A55
S31508000BA009DA054A054B0C3A1360054B13600968C8
S31508000BB0002900DA01207047103C024023016745EE
S31508000BC0AB89EFCD2DE9F84FDFF8BCA1002201254E
S31508000BD003264FF00F090AF1040BAAF1040E00BF11
S31508000BE00B6805FA02F42340A34270D10F7907F087
S31508000BF00307012F01D0022F16D187684FEA420852
S31508000C0006FA08FC27EA0C07D1F80CC00CFA08FC0F
S31508000C104CEA070CC0F808C04768A7430C79C4F328
S31508000C20001494403C4344600C79E443A4070AD07A
S31508000C30C4684FEA420C06FA0CF7BC438F6807FAF9
S31508000C400CF72743C7600C7904F00304022C12D171
S31508000C50D40800EB840CDCF820405707FF0E09FA8D
S31508000C6007F824EA0804D1F8108008FA07F848EAD1
S31508000C700408CCF8208004684FEA420C06FA0CF700
S31508000C80BC430F7907F0030707FA0CF727430760F9
S31508000C904C6814F4403F70D03C4C276847F48047B2
S31508000CA02760246822F0030704F480440094384C33
S31508000CB007EB040CDCF8084897074FEA177809FA97
S31508000CC008F7BC43334FB84202D1002724E054E06A
S31508000CD0314FB84201D101271EE0304FB84201D149
S31508000CE0022719E02E4FB84201D1032714E02D4FF1
S31508000CF0B84201D104270FE02B4FB84201D105278E
S31508000D000AE02A4FB84201D1062705E0284FB84223
S31508000D1001D1072700E0082707FA08F72743CCF888
S31508000D200878DAF800405746D1F804C09C435FEAD1
S31508000D30CC2C00D51C433C60DBF800405F46D1F85C
S31508000D4004C09C435FEA8C2C00D51C433C60DEF84B
S31508000D5000407746D1F804C09C435FEA8C3C00D536
S31508000D601C433C60084F083F3C68D1F804C09C43CC
S31508000D705FEACC3C00D51C433C60521C102AFFF4A9
S31508000D802FAFBDE8F88F0000083C01404438024008
S31508000D900030014000000240000402400008024002
S31508000DA0000C0240001002400014024000180240E5
S31508000DB0001C0240426921EA02030A4043EA024152
S31508000DC0816170470AB1816170470904FBE7000039
S31508000DD001488068704700002C000020024881689E
S31508000DE002781144816070472C0000200B4810B52A
S31508000DF0016841F400710160016841F48061016095
S31508000E00016841F480710160032000F06FF80F203B
S31508000E1000F006F800F024F8002010BD003C02405F
S31508000E2070B50D4D04464FF47A712878B1FBF0F091
S31508000E300A490968B1FBF0F000F051FD48B9102CD9
S31508000E4007D200222146501E00F030F800206C60C0
S31508000E5070BD012070BD00002C0000202800002075
S31508000E600A4808B5016841F480410160006800F449
S31508000E70804000900548001F016841F080510160DC
S31508000E80006800F08050009008BD00004438024019
S31508000E90002809DB00F01F0201219140400980006B
S31508000EA000F1E020C0F8001170470000F0B40E4BC6
S31508000EB01B680C46C3F30223C3F10705042D00D9AA
S31508000EC00425191D072901D2002300E0DB1E01268F
S31508000ED006FA05F1491E214099409E40761E1640A5
S31508000EE03143F0BC02F069B80CED00E0064900F0A9
S31508000EF0070208684FF6FF03184040EA0220034A33
S31508000F0010430860704700000CED00E00000FA0589
S31508000F102DE9F0470E46050065D0DFF81481D8F8AC
S31508000F200000F7B200F00700B04207D288F8007058
S31508000F30D8F8000000F00700B04254D128683D4CAC
S31508000F40810712D5400703D5206840F4E050206099
S31508000F502878000703D5206840F4604020602068A0
S31508000F60A96820F0F000084320602878C0072DD033
S31508000F70304968680839012812D0022813D0032896
S31508000F8011D00968890700292DDA216821F00301A3
S31508000F9001432160FFF71CFF814641F2883A0EE0C3
S31508000FA009688903EFE709688901ECE7FFF710FF8D
S31508000FB0A0EB0901514502D90320BDE8F087206856
S31508000FC0696800F00C00B0EB810FEFD1D8F800107B
S31508000FD0404601F00701B14207D90770006800F0E2
S31508000FE00700B04201D00120E7E72878400705D579
S31508000FF02068E96820F4E050084320602878000754
S3150800100006D52068296920F4604040EAC1002060BE
S3150800101000F038F82168084AC1F30311515CC8404A
S315080010200649086006480068FFF7FAFE0020C4E78C
S31508001030003C0240083802409E4200082800002072
S31508001040300000200448054900680968044AC1F3CD
S315080010508221515CC84070472800002008380240A9
S31508001060AE4200080448054900680968044AC1F305
S315080010704231515CC84070472800002008380240B9
S31508001080AE420008154810B5006810F00C02144866
S3150800109013D01449042A0FD0082A0ED10F4C241F46
S315080010A02268236802F03F025B0207D52068C0F376
S315080010B08810A0FB010106E0084610BD2168C1F3AF
S315080010C08811A1FB00010023FFF77AF82168C1F314
S315080010D00141491C4900B0FBF1F010BD0838024037
S315080010E00024F40040787D012DE9F84F040076D0FD
S315080010F02078DFF85C93C007A9F104054CD009F104
S3150800110004000168C1F38101012908D00068C0F311
S31508001110810002280AD1D9F80000400206D52868BD
S31508001120800339D560680028E1D035E06068B0F5FD
S31508001130803F12D0B0F5A02F286812D020F4803056
S315080011402860286820F480202860606840F2DC5611
S31508001150A8B1FFF73DFE07460DE0286840F4803049
S31508001160F2E740F480202860F7E700BFFFF730FE7B
S31508001170C01BB04273D828688003F7D50CE0FFF788
S3150800118027FE074605E000BFFFF722FEC01BB04258
S31508001190F0D828688003F7D42078DFF8B88280076B
S315080011A04FF0000A44D5AA48001D016811F00C0F3B
S315080011B008D00068C0F38100022811D1D9F80000D0
S315080011C040020DD42868800702D5E068012806D1B8
S315080011D02868216920F0F80040EAC10018E033E1E8
S315080011E0E068B8B10120C8F80000FFF7F1FD06462F
S315080011F005E000BFFFF7ECFD801B0228BAD8286877
S315080012008007F7D5286820F0F801206941EAC00070
S3150800121028600DE0C8F800A0FFF7DAFD064604E0EE
S31508001220FFF7D6FD801B022819D828688007F7D44F
S315080012302078000722D5864E87486169703679B1CD
S3150800124001210160FFF7C4FD074604E0FFF7C0FD72
S31508001250C01B022803D830688007F7D50EE088E05F
S31508001260C0F800A0FFF7B4FD074604E0FFF7B0FD9D
S31508001270C01B02287DD830688007F7D4207840073D
S3150800128068D5DFF8CCB100270BF13C0BDBF8000082
S31508001290C0000BD4DBF8001041F08051CBF80010E9
S315080012A0DBF80000012700F0805000906B4E306894
S315080012B0C00510D4306840F480703060FFF788FDB0
S315080012C0009005E0FFF784FD0099401A022850D8DF
S315080012D03068C005F6D55E4EA0686C3601280FD07A
S315080012E00528306810D020F001003060306820F002
S315080012F004003060A068B8B1FFF76AFD00900FE0FF
S31508001300306840F00100F4E740F004003060F7E789
S31508001310FFF75EFD0099411A41F28830814266D88E
S3150800132030688007F4D50EE0FFF752FD009007E01D
S31508001330FFF74EFD0099411A41F28830814256D88E
S3150800134030688007F4D42FB1DBF8001021F0805103
S31508001350CBF80010A069C8B33D49091D0968C1F357
S31508001360810102294AD00228504607D0C8F86000F1
S3150800137000E03CE0FFF72CFD04463BE04746C8F892
S315080013806000FFF725FD064605E000BFFFF720FDD4
S31508001390801B02282BD828688001F7D4D4E90701D6
S315080013A00843A16A2E4A490802EB0141626A41EAEA
S315080013B08211084394F82C1040EA0161C9F800101C
S315080013C001203866FFF704FD044606E03EE000BF4C
S315080013D0FFF7FEFC001B022809D828688001F7D50C
S315080013E034E000BFFFF7F4FC001B022802D90320F3
S315080013F0BDE8F88F28688001F4D427E00128F7D0E3
S31508001400D9F80000E26900F4800191421CD1226AF1
S3150800141000F03F01914217D147F6C071626A014058
S31508001420B1EB821F10D1A26A4FF0FF3300F44031AE
S3150800143003EB5202B1EB024F06D194F82C1000F0E0
S315080014407060B0EB016F01D00120D1E70020CFE733
S315080014500438024000004742800E474200700040B0
S315080014600000FFFF70B5040009D0606A002540B18E
S3150800147025616561A56294F8510040B10CE0012030
S3150800148070BD6068B0F5827FF4D0E561F2E784F854
S315080014905050204600F044F8022084F85100206895
S315080014A0016821F040010160A088218900F482705A
S315080014B001F404410843A18901F400610843217C31
S315080014C001F002010843217D01F001010843218B47
S315080014D001F400710843217F01F03801084394F8AC
S315080014E0201001F080010843218D01F400510843C2
S315080014F021680860A069042101EA104094F82410C4
S3150800150001F010010843216848602068C16921F488
S315080015100061C1616565012084F85100002070BD35
S3150800152010B586B0044614216846FEF781FE1349B5
S315080015302068884220D112480021026842F480526D
S315080015400260006800F4805005900D48143802685F
S3150800155042F001020260006800F001000590E020F8
S3150800156000900220CDE90101032003900520049094
S3150800157069460448FFF726FB06B010BD0030014057
S3150800158044380240000002402DE9F84F98461646B6
S315080015908A460446FFF71CFC814694F85100012848
S315080015A01ED1BAF1000F73D0002E71D094F85000F6
S315080015B0012815D0012784F85070032084F85100BB
S315080015C000256565C4F830A0A686E686A563A587C6
S315080015D0E58765642564A068B0F5004F03D00CE084
S315080015E00220BDE8F88F2068016821F040010160FB
S315080015F02068016841F48041016020680168490655
S3150800160003D4016841F040010160E068B0F5006F5D
S31508001610606803D048B3012E27D047E008B1012EF1
S315080016201FD1206B21680088C86006E020688168A1
S31508001630890709D5216B0988C160206B801C206346
S31508001640E08E401EE0860CE0FFF7C2FBA0EB090126
S31508001650414503D3B8F1FF3F03D035E0B8F1000F99
S3150800166032D0E08E0028E1D123E0206B2168007893
S31508001670087306E02068816889070AD5216B09780E
S315080016800173206B401C2063E08E401EE0860DE04F
S315080016902BE0FFF79DFBA0EB0901414503D3B8F109
S315080016A0FF3F03D010E0B8F1000F0DD0E08E002800
S315080016B0E0D14A464146204601F0DAF808B1202032
S315080016C06065A06830B109E084F8517084F850501C
S315080016D0032086E72068C1688068009084F8517006
S315080016E004F8505F60680028F3D0012079E72DE9F7
S315080016F0FF4F81B01D46934604464FF001090E9EE2
S31508001700FFF766FB074694F851006168012806D082
S31508001710B1F5827F3CD1A168C9BB042838D10298AB
S31508001720002871D0BBF1000FFBD0002DF9D094F83A
S31508001730500001282CD04FF0010A84F850A094F8E4
S315080017405100042802D0052084F851004FF0000803
S31508001750C4F85480C4F838B0E587A5870299216390
S31508001760E586A586C4F84080C4F8448020680168E8
S31508001770490603D4016841F040010160E068B0F50C
S31508001780006F606808D0F0B3012D49D081E0FFE70B
S31508001790022005B0BDE8F08F08B1012D39D1206BC4
S315080017A021680088C860206B801C2063E08E401E7C
S315080017B0E0862EE02068816889070FD5E18E69B139
S315080017C0B9F1010F0AD1216B0988C160206B801C11
S315080017D02063E08E401EE0864FF00009206881688D
S315080017E0C9070CD0E18F51B1C068A16B0880A06B06
S315080017F0801CA063E08F401EE0874FF00109FFF7C9
S31508001800E7FAC01B01E00BE067E0B04201D3701CA9
S3150800181050D1E08E0028CDD1E08F0028CAD13EE015
S31508001820206B216800780873206B401C2063E08ECB
S31508001830401EE0862DE02068816889070FD5E18E75
S3150800184069B1B9F1010F0AD1216B09780173206BCF
S31508001850401C2063E08E401EE0864FF00009206899
S315080018608168C9070CD0E18F51B1C068A16B0870B7
S31508001870A06B401CA063E08F401EE0874FF0010973
S31508001880FFF7A6FAC01BB04202D3701C01D011E0C4
S3150800189086B1E08E0028CED1E08F0028CBD13A461B
S315080018A03146204600F0E4FF50B12020606584F8F8
S315080018B0508012E084F851A084F85080032068E72D
S315080018C0A06818B92068C1688068009084F851A09B
S315080018D084F85080606D0028F1D0012059E710B5D2
S315080018E0401EB0F1807F01D3012010BD4FF0E024E7
S315080018F060610F21601701F060FB0020A0610720DE
S315080019002061002010BD000070B590F83C20012A27
S3150800191032D0012480F83C40022280F83D2003683A
S315080019205A689D6822F070060A6832435A60134B5B
S3150800193002689A4214D0B2F1804F11D0104B9A42E5
S315080019400ED0104B9A420BD00F4B9A4208D00F4B31
S315080019509A4205D00E4B9A4202D00E4B9A4204D1B7
S31508001960496825F080031943916080F83D400021BD
S3150800197080F83C10084670BD022070BD000001408A
S315080019800004004000080040000C0040000401402C
S31508001990004001400018004010B5040003D094F838
S315080019A03D0010B107E0012010BD002084F83C007E
S315080019B0204600F01FF8022084F83D00211D20680B
S315080019C001F088F8012084F8460084F83E0084F87F
S315080019D03F0084F8400084F8410084F8420084F807
S315080019E0430084F8440084F8450084F83D0000204C
S315080019F010BD00002DE9F84F044600682D498842BD
S31508001A0055D12D4900200A6842F002020A60096889
S31508001A102B4D01F00201009105F10C024FF480688C
S31508001A204FF400694FF4005A82E80107E86128621A
S31508001A30224968624FF02066402785E8C20028469A
S31508001A40FEF762FF08B1FEF744FD25632562AC6325
S31508001A501B4DB346603505F10C010026AF6081E8E1
S31508001A6040071648EE612E6230306E62C5E9000BFB
S31508001A702846FEF749FF08B1FEF72BFD6562A56308
S31508001A80AC630F4D0D48C03505F10C01AF6081E818
S31508001A904007EE612E6248306E62C5E9000B2846A3
S31508001AA0FEF732FF08B1FEF714FDA562AC63BDE888
S31508001AB0F88F0000000400404038024040600240B1
S31508001AC0A428002070B5044690F83C00002501289B
S31508001AD017D0012684F83C60022084F83D0020686F
S31508001AE0826822F0770222F47F42826008685028D2
S31508001AF038D00DDC20284FD005DC90B3102811D142
S31508001B004AE0022070BD302846D040280AD13BE082
S31508001B1060282FD070280DD0B0F5805F03D0B0F5BF
S31508001B20005F12D0012584F83D60002084F83C004F
S31508001B30284670BDCB68D1E90121206801F0B4F8C8
S31508001B402068816841F0770109E0CB68D1E9012175
S31508001B50206801F0A9F82068816841F48041816015
S31508001B60E1E719E0CA684968206801F071F950216F
S31508001B70206806E0CA684968206801F07AF9602199
S31508001B80206801F09BF8CEE7CA684968206801F02A
S31508001B905FF940212068F4E7226801461046F0E71D
S31508001BA07047000030B587B0044614216846FEF732
S31508001BB03FFB17492068884227D116480024016848
S31508001BC041F004010160016801F004010591016812
S31508001BD041F0020101600068022500F0020005904C
S31508001BE04FF400700090CDE9015469460A48CDE9E2
S31508001BF00345FEF7E7FF30200090CDE9015469461A
S31508001C000648CDE90345FEF7DDFF07B030BD000005
S31508001C100004004030380240000802400004024038
S31508001C2070B5044690F83C0000260D4601280FD0F2
S31508001C30012084F83C006AB1042A1DD0082A2FD056
S31508001C400C2A3FD00126002084F83C00304670BD9F
S31508001C50022070BD206801F039F82068816941F0DA
S31508001C60080181612068816921F004018161206889
S31508001C7081692A69114311E0206801F057F8206844
S31508001C80816941F4006181612068816921F480617C
S31508001C908161206881692A6941EA02218161D2E766
S31508001CA0206801F079F82068C16941F00801C1612E
S31508001CB02068C16921F00401C1612068C1692A69E7
S31508001CC0114311E0206801F09BF82068C16941F4CE
S31508001CD00061C1612068C16921F48061C161206821
S31508001CE0C1692A6941EA0221C161ACE710B504005D
S31508001CF003D094F83D0010B107E0012010BD002084
S31508001D0084F83C00204600F01EF8022084F83D00C6
S31508001D10211D206800F0DEFE012084F8460084F8C4
S31508001D203E0084F83F0084F8400084F8410084F8B7
S31508001D30420084F8430084F8440084F8450084F897
S31508001D403D00002010BD7047704770472DE9F041EF
S31508001D5017460D0004464FF000060CD0042D11D08E
S31508001D60082D16D094F84100022819D094F841009D
S31508001D70012818D07CE094F83E00022810D094F888
S31508001D803E00F5E794F83F00022809D094F83F0092
S31508001D90EEE794F84000022802D094F84000E7E7FE
S31508001DA00220BDE8F081002F62D0002B60D04D499B
S31508001DB04D4ADFF838C102204DB1042D18D0082D40
S31508001DC027D084F841000C2D44D0012687E084F8FA
S31508001DD03E00606AC163606A39460264606AC0F898
S31508001DE04CC02268606A3432FEF7F8FD88BB21E0F1
S31508001DF084F83F00A06AC163A06A39460264A06AF3
S31508001E00C0F84CC02268A06A3832FEF7E7FD00BB6E
S31508001E1015E084F84000E06AC163E06A3946026466
S31508001E20E06AC0F84CC02268E06A3C32FEF7D6FD8C
S31508001E3078B909E02068C16841F400711EE020689D
S31508001E40C16841F4806119E02068C16841F4006105
S31508001E5014E00DE0206BC163206B39460264206BE9
S31508001E60C0F84CC02268206B4032FEF7B7FD08B1B7
S31508001E70012096E72068C16841F48051C1600122BB
S31508001E802946206800F08EFE19492068194A8842BA
S31508001E9001D0904203D1436C43F400434364206865
S31508001EA0884213D0B0F1804F10D0134988420DD024
S31508001EB0124988420AD01249884207D0904205D072
S31508001EC01049884202D01049884204D1816801F03D
S31508001ED00701062903D0016841F001010160304677
S31508001EE05FE70000BF2B00081D2C0008552C0008D2
S31508001EF000000140000401400004004000080040C2
S31508001F00000C0040004001400018004070B5040075
S31508001F1004D094F84100002510B106E0012070BDF8
S31508001F2084F84050204600F023F8242084F8410025
S31508001F302068C16821F40051C160204600F0ACFF5A
S31508001F402068016921F4904101612068416921F006
S31508001F502A0141612068C16841F40051C160656485
S31508001F60202084F8410084F842006563002070BD93
S31508001F7010B586B0044614216846FEF759F9144987
S31508001F802068884221D113480021026842F01002D5
S31508001F900260006800F0100005900E4814380268C8
S31508001FA042F001020260006800F0010005904FF45B
S31508001FB0C06000900220CDE90101032003900720AC
S31508001FC0049069460448FEF7FDFD06B010BD000002
S31508001FD0001001404438024000000240FEE70000BD
S31508001FE00448016881F30888416872B6024A10609D
S31508001FF00847000000C0000808ED00E02DE9F041A0
S3150800200000230A250C46C0F3072C0326002103EB00
S31508002010430200BF5FEACC7701EBC20702D024F87F
S31508002020175001E024F81760491CC9B20829F1D3F2
S315080020300821C7B25FEAC77E01EBC20E02D024F8B8
S315080020401E5001E024F81E60491CC9B21029F1D3BC
S315080020501021C0F3074700BF5FEAC77E01EBC20E37
S3150800206002D024F81E5001E024F81E60491CC9B2AB
S315080020701829F1D35B1CDBB29F2BC7D34FF47965C4
S315080020802B46224600210548FFF760FE2B462246CE
S31508002090BDE8F04104210148FFF758BE5C2800203E
S315080020A0114808B5016841F4001101600068002272
S315080020B000F40010009011460D20FEF7F7FE0D20E3
S315080020C0FEF7E6FE002211460F20FEF7EFFE0F2070
S315080020D0FEF7DEFE002211461020FEF7E7FEBDE8F9
S315080020E008401020FEF7D4BE3038024010B5044927
S315080020F00448FEF7F0F90249491E087010BD0000B1
S315080021005900002060000020F0B587B01421684609
S31508002110FEF78EF821480024016841F004010160A9
S31508002120016801F004010591016841F08001016030
S31508002130016801F080010591016841F00101016023
S31508002140016801F001010591016841F00201016091
S315080021500068134E00F002004FF400550590002267
S3150800216029463046FEF72EFE0E4F0022102138462D
S31508002170FEF728FE00950125CDE90154694630464B
S315080021800394FEF71FFD10200090CDE9015469461F
S3150800219038460394FEF716FD07B0F0BD3038024006
S315080021A00008024000000240104810B50E490160C0
S315080021B04FF48271416000218160C1604FF4007262
S315080021C00161C0E905121022C0E907214162816256
S315080021D00A21C162FFF746F9002803D0BDE810407E
S315080021E0FEF777B910BD0000003001400428002032
S315080021F010B58EB000240794089409940A940B9499
S315080022001C2168460C94FEF713F8264824490160F9
S315080022100521C0E901140E21C0E90314802181615A
S31508002220FFF7BAFB08B1FEF754F94FF48050079050
S3150800223007A91C48FFF746FC08B1FEF74AF91948F2
S31508002240FFF754FD08B1FEF744F90B940BA915489E
S315080022500C94FFF759FB08B1FEF73BF96020CDE96E
S3150800226000040294002269460E480494FFF7D8FC3D
S3150800227008B1FEF72EF9042269460A48FFF7D0FC92
S3150800228008B1FEF726F90C2269460648FFF7C8FC8E
S3150800229008B1FEF71EF90348FFF784FC0EB010BD1F
S315080022A0000400405C2800200C4810B50A4901606B
S315080022B04FF4E1314160002181600C22C160C0E920
S315080022C004128161C161FFF721FE002803D0BDE831
S315080022D01040FEF7FEB810BD00100140C4290020CA
S315080022E0FEE7FEE7704700007CB541F6FF74FEF78F
S315080022F07DF80025FF2000F015FB6D1C0A2DF9DB83
S3150800230000F0A8FA40208DF8000000208DF80100A2
S315080023108DF802008DF803008DF8040095208DF8DD
S3150800232005000621684600F0EFFA00F0D7FA012802
S3150800233006D0641E00F0D2FA012801D0002CF8D18C
S31508002340FEF754F8FF2000F0EDFA02490120487024
S315080023507CBD00001E00002010B5064C4FF4FA7034
S31508002360A4F8060000F0BAFAFF2802D0E18800298E
S31508002370F8D110BD1E00002070B50F4C0546C820C8
S315080023800E46A08000F0AAFAFF2803D0FE2805D042
S31508002390002070BDA0880028F4D1F9E72C466D1CF2
S315080023A000F09CFA2070761EF8D200F097FA00F03A
S315080023B095FA012070BD00001E00002070B50C467D
S315080023C00546FFF7C9FFFF2801D0FF2070BD284644
S315080023D000F0A8FA200E00F0A5FAC4F3074000F0B2
S315080023E0A1FAC4F3072000F09DFAE0B200F09AFAC9
S315080023F0402D07D0482D07D0012000F093FA4C2D28
S3150800240006D007E0952000E0872000F08BFA01E06F
S3150800241000F064FA5FF00A0400F060FA0106D5D508
S31508002420641E14F0FF04F7D170BD70B50E4605465C
S315080024300024FFF791FFFF2820D1304600F072FAFA
S31508002440FD2E17D04FF40071284600F05DFA00F013
S3150800245045FA00F043FA00F041FA054600F01F007D
S31508002460052803D0641CE4B2402CF4D900F036FAEF
S315080024700028FBD005F01F00052801D0002070BDFC
S31508002480012070BDF8B508B10120F8BD484C207888
S31508002490800772D4FFF728FF00F0DCF900252946EB
S315080024A04020FFF78BFF012872D14FF47A70A08085
S315080024B04FF4D5714820FFF781FF01280DD0002180
S315080024C07720FFF77BFF012841D800216920FFF715
S315080024D075FF01283BD8022540E000264FEA0D0784
S315080024E000F0FCF9B855761CF6B2042EF8D39DF820
S315080024F0020001284CD19DF80300AA2848D14607B6
S3150800250000217720FFF75AFF012804D831466920B1
S31508002510FFF754FF18B1A0880028F1D138E0A08849
S3150800252060B300217A20FFF749FF38BB5FF000054A
S3150800253000F0D4F978556D1CEDB2042DF8D39DF84A
S315080025400000400601D50C2522E0042520E00125DF
S3150800255001E0022D02D00021412007E0002177206A
S31508002560FFF72CFF012804D800216920FFF726FF72
S3150800257028B1A0880028ECD109E016E008E0A08878
S3150800258028B14FF400715020FFF718FF00B100255D
S31508002590A570FDF72BFF00F0A1F925B1207820F0F2
S315080025A00100207001E0002060702078F8BD00006E
S315080025B01E0000207FB515460E4610B1042004B053
S315080025C070BD01244A48052E04D00078C00713D0F0
S315080025D00320F4E7297829B1012906D0022907D072
S315080025E0042482E00021417004E0FFF77DFE01E04B
S315080025F040785070002478E000F02CF90B2E51D06A
S3150800260005DCEEB3012E07D0022E69D141E00C2E6F
S315080026104BD00D2E64D154E000214920FFF7CEFEA1
S3150800262078BB10216846FFF7A7FE50B39DF8001047
S315080026300120B0EB911F09D19DF808209DF80910DB
S3150800264000EB022008440004800920E09DF80500FC
S315080026509DF80A1000F00F0000EBD1109DF8091044
S315080026609DF8072001F0030100EB41019DF80800E1
S31508002670800900EB82009DF8062002F0030201E0C3
S315080026800BE02EE000EB8220401CC91F8840286022
S3150800269015E04FF40070288011E0FFF75DFEFF2873
S315080026A00DD01EE00021492001E000214A20FFF755
S315080026B085FEB0B910212846FFF75EFE88B10024D2
S315080026C00FE000217A20FFF779FE48B95FF0000491
S315080026D000F004F9641CE4B205F8010B042CF7D3E6
S315080026E00424FDF783FE00F0F9F8204667E70000AA
S315080026F01E0000202DE9F0411C4615460E4638B945
S3150800270034B121480178C90704D00320BDE8F08117
S315080027100420FBE78078400700D4550200F09AF8B9
S315080027204FF40077012C294604D05220FFF746FEC5
S3150800273070B11AE05120FFF741FEE0B9394630463C
S31508002740FFF71AFEB8B1FDF751FE00F0C7F818E01A
S3150800275039463046FFF710FE18B1641E06F50076B6
S31508002760F6D100214C20FFF729FEFDF73FFE00F0C9
S31508002770B5F824B905E0FDF739FE00F0AFF80120F9
S31508002780C4E70020C2E700001E00002008B10120AF
S3150800279070470148007870471E0000202DE9F04177
S315080027A01C4616460F4638B934B1294D2878C00755
S315080027B004D00320BDE8F0810420FBE72878400711
S315080027C001D50220F6E7A878400700D4560200F0A3
S315080027D041F8012C10D0A878800707D5002177206A
S315080027E0FFF7ECFD21465720FFF7E8FD3146592053
S315080027F0FFF7E4FD78B11CE031465820FFF7DEFD0F
S31508002800F0B9FE213846FFF710FEC8B1FDF7EEFD18
S3150800281000F064F819E0FC213846FFF706FE18B107
S31508002820641E07F50077F6D1FD210020FFF7FDFDB0
S3150800283030B1FDF7DBFD00F051F834B10120B9E7FE
S31508002840FDF7D4FD00F04AF8F8E70020B2E70000EB
S315080028501E00002010B5002201210448FEF7B2FA36
S31508002860BDE810400120FEF7F1B800000004024060
S31508002870F8B515460E460B4600920446012202217B
S3150800288000F060F8A0B9134813490068B0FBF1F0EE
S315080028904FF47A71484300906068B0F5827F0DD195
S315080028A03346002280212046009500F04BF870B18F
S315080028B0606D40F0200060650320F8BD009830B1D7
S315080028C0401E009020688068C0430006F6D50020A8
S315080028D0F8BD00002800002000366E010EB5FF2066
S315080028E08DF804000748006881688907FCD56420CC
S315080028F00090012302AA01A90248FEF7F8FE9DF8F6
S3150800290008000EBD04280020054A126893689B0734
S31508002910FCD50A46014664230148FEF735BE000089
S315080029200428002001B50648006881688907FCD597
S315080029306423012269460248FEF726FE08BD000008
S31508002940042800202DE9F8431E4691468846044689
S31508002950089DFEF73DFA401B351AFEF739FA074679
S3150800296026480068C0F3CB3068430AE0701C09D0DB
S31508002970FEF72EFAC01BA8420FD275B10098B8B35D
S31508002980401E00902068816838EA010033D0002193
S315080029904945EBD10020BDE8F8832068416821F05D
S315080029A0E00141606068B0F5827F0BD1A068B0F5A0
S315080029B0004F02D0B0F5806F04D12068016821F07D
S315080029C040010160A06AB0F5005F09D1206801687E
S315080029D021F4005101602068016841F4005101604A
S315080029E0012084F85100002084F850000320D2E723
S315080029F0FFE70025C6E70121CAE7000028000020F6
S31508002A007047000010B5FEF7E9F90649088808B1CD
S31508002A10401E088004490888002801D0401E088006
S31508002A2010BD0000220000202400002030B593B01D
S31508002A3030216846FDF7FCFB14210CA8FDF7F8FBCE
S31508002A401E480025016841F080510160006800F0C9
S31508002A50805011901A48016841F48041016000686D
S31508002A60022400F480401190012000900004019097
S31508002A708001CDE90640192008904FF4A870CDE9E9
S31508002A80090404200B906846FEF72EFB08B172B6BF
S31508002A90FEE70CA90F2081E831004FF4A0500F90F3
S31508002AA04FF48050109005210CA8FEF731FA002843
S31508002AB001D072B6FEE713B030BD000040380240C0
S31508002AC0007000400248016841F4700101607047D7
S31508002AD088ED00E0F0B50268274B284D284E294FAF
S31508002AE0294C4FF0804C984209D0604507D0A8423F
S31508002AF005D0B04203D0B84201D0A04204D122F09A
S31508002B00700E4A6842EA0E0298421BD0604519D0F8
S31508002B10A84217D0B04215D0B84213D0A04211D05F
S31508002B201A4DA8420ED01A4DA8420BD0194DA842EC
S31508002B3008D0194DA84205D0184DA84202D0184D04
S31508002B40A84203D122F44075CA682A434D6922F087
S31508002B5080022A438D68C5620D688562984201D055
S31508002B60A04201D109690163016841F004010160CD
S31508002B70012141610260F0BD0000014000040040EF
S31508002B8000080040000C00400004014000400140DD
S31508002B90004401400048014000180040001C004065
S31508002BA00020004010B501F01F030121046A994076
S31508002BB08C430462016A9A401143016210BD10B544
S31508002BC0846B0121626A824205D12177C069F8B90E
S31508002BD084F83E101CE0A26A824206D102222277BD
S31508002BE0C069A8B984F83F1012E0E26A824206D1A9
S31508002BF004222277C06958B984F8401008E0226B8D
S31508002C00824205D108222277C06908B984F84110A2
S31508002C102046FFF799F80020207710BD10B5846B81
S31508002C20616A814201D101200DE0A16A814201D188
S31508002C30022008E0E16A814201D1042003E0216B09
S31508002C40814201D1082020772046FFF77EF8002030
S31508002C50207710BD10B5846B0121626A824203D1C8
S31508002C60217784F83E1019E0A26A824204D1022034
S31508002C70207784F83F1011E0E26A824204D10420EA
S31508002C80207784F8401009E0226B824204D108209C
S31508002C90207784F8411001E084F83D102046FEF7BD
S31508002CA07FFF0020207710BD10B5846842EA032212
S31508002CB024F47F440A432243826010BD826822F0CE
S31508002CC070020A4342F0070181607047F0B5036A53
S31508002CD0026A22F00102026242688469124E24F0F6
S31508002CE073050C682C4323F002058B682B430D4DA6
S31508002CF0A84201D0B04205D123F00807CB683B4370
S31508002D0023F00403A84201D0B04205D14D6922F44C
S31508002D10407215438A692A4342608461496841635F
S31508002D200362F0BD0000014000040140F0B5026AEC
S31508002D30036A23F010030362436884690D6824F468
S31508002D40E64444EA05248D6822F0200242EA051288
S31508002D500F4D104EA84201D0B04206D1CF6822F0DE
S31508002D60800242EA071222F04002A84201D0B0428D
S31508002D7007D14D6923F4406343EA85038D6943EA25
S31508002D80850343608461496881630262F0BD00007F
S31508002D900000014000040140F0B5026A036A23F40A
S31508002DA0807303624368C46922F4007224F07305D1
S31508002DB00C68124E2C438D6842EA05220E4DA84235
S31508002DC001D0B04206D1CF6822F4006242EA072257
S31508002DD022F48062A84201D0B04207D14D6923F49B
S31508002DE0405343EA05138D6943EA05134360C461FA
S31508002DF04968C1630262F0BD000001400004014059
S31508002E0030B5046A026A22F4805202624268C369D3
S31508002E100D6823F4E64343EA05238D6824F4005439
S31508002E2044EA0534084DA84202D0084DA84204D108
S31508002E304D6922F4804242EA85124260C3614968BC
S31508002E400164046230BD0000000001400004014036
S31508002E5010B5036A046A24F001040462846924F044
S31508002E60F00444EA021423F00A020A438461026267
S31508002E7010BD10B5036A046A24F01004046284695C
S31508002E8023F0A00324F4704444EA023243EA011111
S31508002E908261016210BD000070B5044600680169D0
S31508002EA0E26821F44051114301612169A068E26991
S31508002EB008436169114308432168CA6849F20C63EB
S31508002EC09A430243CA6020684169A26921F44071A5
S31508002ED01143416131492068884202D0304988420D
S31508002EE002D1FEF7BFF801E0FEF7ACF8E26900236D
S31508002EF0192164253226B2F5004F626828D0A0FB56
S31508002F000101930F9200FDF75BF90146B0FBF5F05E
S31508002F106FF01802504301EB800006EB0010B0FB7F
S31508002F20F5F000F0F002B1FBF5F002EB0012B1FB90
S31508002F30F5F06FF01803584301EB800006EB00101C
S31508002F40B0FBF5F000F00F0021681044886070BDF2
S31508002F50A0FB010192185B41FDF732F90146B0FB6F
S31508002F60F5F00201B1FBF5F06FF01803584301EBD9
S31508002F70800006EBC000B0FBF5F000F0F80002EBAD
S31508002F804002B1FBF5F0584301EB800006EBC000A8
S31508002F90B0FBF5F000F00700D6E70000001001408E
S31508002FA000140140FFF76EBAFFF704BBFFF7A2BB98
S31508002FB0FFF7ECBBFFF7F2BBFEE70907090E00288F
S31508002FC004DB00F1E02080F80014704700F00F00E1
S31508002FD000F1E02080F8141D704702E008C8121FAF
S31508002FE008C1002AFAD170477047002001E001C1E4
S31508002FF0121F002AFBD1704710B504460020E07066
S31508003000401EE062204600F0D8FF08B1042010BD3B
S3150800301004F22E2000F06CFFA0F52A41553901D0A4
S31508003020032010BD94F83000E92805D0EB2814D108
S3150800303094F83200902810D104F1660000F04DFF94
S315080030400749B1EB002F06D004F1820000F045FFD6
S315080030500449884201D1002010BD022010BD00009D
S315080030600046415446415433F0B50022144D1346E8
S3150800307005EB021426685EB10768BE4209D1666888
S315080030808768BE4205D1A4684669B44204D000E008
S315080030900123521C022AEBD3022A01D069B904E0A3
S315080030A04BB9022907D01220F0BD05EB0210808922
S315080030B0B0F5807F01D00020F0BD1020F0BD0000E3
S315080030C00C2A002030B50021054B0C4603EB0112F3
S315080030D01568854200D11460491C0229F6D330BD13
S315080030E00C2A00200268490AC06A5289B1FBF2F12B
S315080030F0001D04C81AB1914203D3891AF8E70020C3
S31508003100704700680844704700F052BA4269891E41
S31508003110921E8A4201D800207047826A408901FBC4
S31508003120002070472DE9F04105680F00804606D05B
S3150800313000F000FE022809D20120BDE8F081EE6801
S3150800314016B16869B04207D8012605E0411CF4D0DB
S3150800315069698142F1D83E4634466869641CA042D2
S3150800316002D80224022E0AD32146404600F0E2FD88
S3150800317038B10128E1D0411CDFD0B442EDD100209E
S31508003180DBE74FF0FF3632462146284600F02EFF91
S3150800319030B957B122463946284600F027FF20B1F4
S315080031A001280FD001242046C7E7EC60D5E90401C1
S315080031B0891E884201D8401E2861287940F00100FE
S315080031C02871F0E73446EEE72DE9F0410E46243043
S315080031D00D6804460B22202100F0E6FE0020014679
S315080031E008232A5C401C202A12D92F2A0BD05C2AD5
S315080031F009D02E2A01D0994214D30B2B34D02E2A6B
S3150800320032D10CE0401C2B5C2F2BFBD05C2BF9D069
S315080032102844306041B32078E52831D032E00821CF
S315080032200B23DEE7A2F181077D2F13D82F5C401C04
S31508003230A7F1400CBCF13F0F04D3A7F1800CBCF1F9
S315080032407F0F11D2A3F1010C61450DD26254491CBE
S31508003250675413E00FA700E07F1C97F800C0BCF185
S31508003260000F04D09445F7D10620BDE8F081A2F1FD
S315080032706107192F01D8203AD2B26254491CB0E727
S3150800328005202070202A01D8042000E00020E072E2
S315080032900020EAE7222A2B2C3A3B3C3D3E3F5B5D69
S315080032A07C7F0000401E022812D20A4901EB001159
S315080032B08889B0F5807F05D008B1401E80B2888124
S315080032C010B103E00020FAE70020086000207047EC
S315080032D0022070470C2A00202DE9F04104460021FF
S315080032E0056800F0D8F8002826D12846E16900F0DC
S315080032F064FE02001FD1206A017899B1C17A01F0F3
S315080033003F01A171C17A09070FD404F124010B26E4
S3150800331010F8013B11F8017BDB1B761E04D0002B4D
S31508003320F6D002E0042206E02BB10021204600F088
S3150800333005F80200D9D01046BDE8F0812DE9F0471E
S31508003340054647690468C0698946203710B1B7F54C
S31508003350001F02D30420BDE8F087F90560D1401CA0
S31508003360E861A9694FF0000829B16089401E10EA92
S31508003370572F05D054E02089B0EB571F1DD94FE0D1
S31508003380284600F0D7FC064601281BD9701C33D006
S315080033906069B0423ED8B9F1000F0ED02846A96937
S315080033A0FFF7C0FE06000BD0012E0BD0701C23D0F1
S315080033B0204600F031FFF8B906E0C5F81C80C9E7D9
S315080033C00720C8E70220C6E74FF40072002104F17F
S315080033D0300000F0E9FD4FF0000831462046FFF7BF
S315080033E095FE4FF00109E0620DE000BF84F80390F6
S315080033F0204600F011FF08B10120ACE7E06A08F1A9
S315080034000108401CE06261894145EFD8E16AA1EBF9
S315080034100800E06231462046AE61FFF777FEE861B4
S31508003420C7F30800204430306F612862002092E715
S3150800343070B504460021066800F02DF80DE0304608
S31508003440E16900F0BAFD50B9206A0078E52809D08C
S3150800345040B101212046FFF771FF0028EFD004286C
S3150800346007D007E03046E16900F0A7FD050003D064
S315080034700FE0072005460CE020220021206A00F014
S3150800348093FD0B2204F12401206A00F083FD01203C
S31508003490F070284670BD2DE9F04107680E460546CE
S315080034A0B1F5001F36D2F00634D16E61AC6824B986
S315080034B03878032805D37C6A1CB178894FEA4028F6
S315080034C012E03889B0EB561F24D9786A12E02846EC
S315080034D000F030FC0446401C1AD0022C1AD3786936
S315080034E0A04217D9A6EB080646452146EFD238462C
S315080034F0FFF70CFEC5E9064060B100EB5620E8610F
S31508003500C6F308003844303028620020BDE8F08150
S315080035100120FBE70220F9E770B5094C05460020B3
S31508003520615D00290AD104EB850160194968007AB2
S3150800353009688847002801D10121615570BD00003E
S315080035402C2A002030B4054C231804EB80001B7A83
S31508003550406804691846A44630BC60472C2A0020F7
S3150800356030B4054D2C1805EB8000247A4068856830
S315080035702046AC4630BC60472C2A0020044A111865
S3150800358002EB8000097A4068426808461047000046
S315080035902C2A002030B4054D2C1805EB8000247A1F
S315080035A04068C5682046AC4630BC60472C2A0020D7
S315080035B038B5044600F0EBF900280CD169462046D8
S315080035C000F053FE002806D12069FFF76BFE00289D
S315080035D001D10021216038BD2DE9F74181B090461F
S315080035E002980090684600F006FC040003D50B20FC
S315080035F004B0BDE8F0810D4E002756F824501DB1E1
S315080036002846FFF75FFD2F700198002800D0077045
S3150800361046F8240002D0B8F1010F01D00020E7E7F0
S31508003620002201A902A800F0F9F9E1E778000020D4
S315080036302DE9F74392B005000BD002F03F0632465B
S31508003640694613A800F0EAF904004FF0000804D010
S31508003650EBE0092015B0BDE8F0830098049004A8B3
S31508003660139900F005FB04000ED19DF83F000006F3
S3150800367001D5062408E0700801D0012100E00021E8
S3150800368004A8FFF7F1FC044616F01C0F5DD04FF0B6
S315080036900109C4B1042C10D10020674902E0401C7E
S315080036A0022804D201EB00121268002AF7D1022878
S315080036B007D004A8FFF7BCFE044646F008065CB12E
S315080036C0B3E01224B1E09DF8160010F0110F47D1AF
S315080036D0700701D50824A8E0300747D500F089FB14
S315080036E007460C9839460E3000F045FD0C983946C9
S315080036F0163000F040FD0C982021C1720C990098F4
S3150800370000F0D8FB074600220C99009800F01FFD30
S315080037100C9800211C3000F02EFD009880F80390CC
S3150800372017B3D0F82C900022394604A800F0D5FC2F
S3150800373004007AD14946009800F03FFC040000983E
S31508003740A7F10107C7600DD06FE0E4BB9DF816002E
S31508003750C10601D5042468E0B10703D5C00701D026
S31508003760072462E0300701D546F040060098C06A93
S3150800377068620C98A862700801D0012100E0002157
S3150800378004A800F057FB2861B0B30C99009800F024
S3150800379091FBA8600C981C3000F09FFBC5F82C80A4
S315080037A0E8600099296005F13000C988A9802E755E
S315080037B085F81580C5F820804FF4007200218146EF
S315080037C0C5F8188000E030E000F0EEFBB0062ED514
S315080037D0EE6866B3AE610098A968408947020FE0B3
S315080037E0284600F0A7FA0146012800D80224481CFA
S315080037F003D0F61B24B105E01BE00124F61B01E00B
S31508003800BE42EDD8E96184B9F00510D00098FFF7FB
S315080038107DFC70B100EB56222A62009801234946C6
S315080038204078FFF79DFE10B10124C5F800802046B8
S3150800383010E70224F9E700000C2A00202DE9FE4FC4
S3150800384088460021196099461546044602A900F0E3
S315080038500CFD002812D1607D00280FD1207DC007FD
S315080038600BD0E168A0690127081A4FF0020A04F193
S31508003870300B854200D9054684E00720BDE8FE8F57
S31508003880A169C80566D102984089401E10EA5126EA
S3150800389011D129B1E06A28B12046FFF723FC05E0DB
S315080038A0A06803E02046E16900F044FA02281BD329
S315080038B0411C4AD0E061E1690298FFF727FC98B1FC
S315080038C030440190680A009025D002993218488938
S315080038D0824201D9801B0090DDE9003248784146D2
S315080038E0FFF73EFE88BB03E084F815A00220C5E773
S315080038F0207D00060CD5216A0198081A009988428D
S3150800390006D208EB40204FF40072594600F042FBFD
S31508003910009846022CE0226A0198824218D0207D3F
S3150800392000060AD50298012359464078FFF732FE69
S3150800393058B9207D00F07F0020750298012359466A
S315080039404078019AFFF70CFE10B16775012095E7DC
S3150800395001982062208BC0F30800C0F50076AE42BD
S3150800396000D92E46011932464046303100F012FB86
S31508003970A069B0443044A061D9F800008119AD1B94
S31508003980C9F80010002D7FF47BAF002076E7F8B564
S315080039900446694600F069FC00280ED1217D4A06D6
S315080039A00BD508060ED50098226A0123407804F143
S315080039B03001FFF7EFFD08B10120F8BD207D00F0CA
S315080039C07F00207500F015FA0646616A009800F037
S315080039D0F4FA0028F1D1A56A2946E87A40F02000D1
S315080039E0E872A268206800F0B2FB05F11C00E168E5
S315080039F000F0C1FB314605F1160000F0BCFB0021C2
S31508003A0005F1120000F0BFFB00980121C17000F01B
S31508003A10BFFB217D01F0BF012175F8BD2DE9FF41EE
S31508003A20002790460E460F6000F0E5F9050003D51D
S31508003A300B2004B0BDE8F0818A4850F825409CB1B7
S31508003A403460207808F0FE0620B16078FFF796FD0E
S31508003A50C1070BD02770E8B2B8466070FFF75CFD67
S31508003A60C10708D00320E4E70C20E2E70EB14007BF
S31508003A7004D40020DDE71EB1400701D50A20D8E7A7
S31508003A80002631462046FFF7B7FA022822D100253C
S31508003A904FEA0D0704EB051090F8F21100F5F770E0
S31508003AA019B1083000F019FA00E0002047F825009F
S31508003AB06D1C042DEED3002557F8256036B1314626
S31508003AC02046FFF799FA022801D203E003206D1C6D
S31508003AD0042DF1D3042809D002286DD204F13B0045
S31508003AE000F006FAB0F5007F66D101E00120A0E7F4
S31508003AF004F1460000F0FCF918B904F1540000F08E
S31508003B00ECF9A06194F84050A570012D01D0022D62
S31508003B1052D1454394F83D006081E8B3411E0842FE
S31508003B204AD104F1410000F0E3F92081000743D1AE
S31508003B3004F1430000F0DCF9070004D104F1500059
S31508003B4000F0CBF9074604F13E0000F0D1F9010078
S31508003B5032D02389481900EB131297422CD3B81A8E
S31508003B606789B0FBF7F0B8B103274FF6F57C6045D7
S31508003B7000D8022740F6F57C604500D80127801C4E
S31508003B803244A26231446061C4E90761032F15D04B
S31508003B9013B12944616200E00EE0022F1FD000F045
S31508003BA0010100EB400001EB500000BFA16900F2E3
S31508003BB0FF10B1EB502F14D20D203AE704F15A004A
S31508003BC000F096F90028F7D120890028F4D104F1ED
S31508003BD05C0000F082F9606260698000E6E74000F8
S31508003BE0E4E74FF0FF302061E06080202071032F6A
S31508003BF02CD104F1600000F07BF9012826D1711C54
S31508003C00204600F0DAF908BB84F8048004F22E2076
S31508003C1000F06EF9A0F52A41553917D104F13000A4
S31508003C2000F05BF91049884210D104F5057000F0E0
S31508003C3054F90E49884209D104F5067000F04DF989
S31508003C40206104F5077000F048F9E060054927701F
S31508003C50091F0888401C0880E0802046FFF732FAD2
S31508003C6007E70000780000205252614172724161F4
S31508003C7073B504460568019801E0401C0190017877
S31508003C802F29FAD05C29F8D00021A1600198007884
S31508003C90202806D2802084F82F002046FFF7FBFB59
S31508003CA07CBD01A92046FFF78FFA0028F8D12046E7
S31508003CB0FFF712FB94F82F1028B10428F0D1490712
S31508003CC0EED405207CBD4907FCD4A079C006F8D5FA
S31508003CD0A08AC0F3080041192846303100F0EAF8F6
S31508003CE0A060DEE710B5002821D0114B0022001F86
S31508003CF0196803E0814203D80A4649680029F9D1C0
S31508003D0052B11368841A9C4204D1006818441060A2
S31508003D10104602E0506000E0186039B102680B1ADC
S31508003D20934203D10B681A4402604968416010BD8A
S31508003D307C0000202DE9F04104680D4602290BD3CA
S31508003D406069A84208D920784FF0FF36012807D0C5
S31508003D5002282BD0032839D001263046BDE8F08149
S31508003D60206A05EB550700EB5721204600F025F998
S31508003D700028F2D1C7F3080020447F1C90F8308051
S31508003D80206A00EB5721204600F017F90028E4D1F5
S31508003D90C7F30800204490F8301048EA0120E907E4
S31508003DA001D00609D9E7C0F30B06D6E7206A00EB6F
S31508003DB01521204600F001F90028CED1E8B204EB1F
S31508003DC04000303000F094F80646C6E7206A00EB5B
S31508003DD0D511204600F0F1F80028BED140F2FF10B8
S31508003DE000EA85002044303000F077F820F070466D
S31508003DF0B3E70020704710B504464FF0FF3022683D
S31508003E00002A13D0114600E0491C0B78212B0ED34B
S31508003E103A2BF9D112F8013B303B0A2B06D28A42DB
S31508003E2004D1002B02D1491C1846216010BD002080
S31508003E3010BD0000F0B502461D4BD2F80050002018
S31508003E4003EB00142668AE4207D166689768BE423F
S31508003E5003D1A4685669B44202D0401C0228EFD3A5
S31508003E60022814D1002002E0401C022804D203EBE9
S31508003E7000142468002CF7D102280ED003EB001496
S31508003E802560956865605269A2600022A2810029B2
S31508003E9003EB0011898902D019B10020F0BD491C35
S31508003EA001E04FF4807103EB0012401C9181F0BDD4
S31508003EB00C2A002070B506460D4601F11A0000F0DE
S31508003EC017F804463078032805D105F1140000F0E8
S31508003ED00FF844EA0044204670BDC178827842EA69
S31508003EE001214278007842EA012140EA0120704720
S31508003EF04178007840EA01207047FCF777FFFEF723
S31508003F0095FDFEF701F9FEF7CBF8FEF74DF9FEF73A
S31508003F10EDF8FEF7C9F9FEF76BF90A20FCF796FDEE
S31508003F20FCF7C2F9FEE70000F0B50B30154D20F09E
S31508003F3007010024144A0FE003688B420BD38B4217
S31508003F4005D95E1A43184768C3E9006700E0436865
S31508003F50136002C004E0021D10680028ECD1204658
S31508003F60002802D1286808B10020F0BD064A074893
S31508003F701060074A121A22F00702C0E9002401203D
S31508003F802860D7E7800000207C0000203C2A00201B
S31508003F90383A0020002A05D011F8013B00F8013B09
S31508003FA0521EF9D1704700005FFA81F100F8011B33
S31508003FB0521EFBD17047FFF70FBB70B50446C06AA7
S31508003FC00D460026A8420FD0204600F025F9060027
S31508003FD00AD1607801232A4604F13001FFF7C0FAB6
S31508003FE008B1751E0126E562304670BD2DE9F04719
S31508003FF0022617460D460446022969D36069A84277
S3150800400066D920784FF00109012804D0022836D055
S3150800401003285DD143E0216A05EB550801EB5821D9
S315080040202046FFF7CAFF060052D1C8F3080020440D
S31508004030303008F10108E90704D00178FAB262F3D2
S315080040401F1100E03946017084F80390216A204662
S3150800405001EB5821FFF7B1FF060039D1C8F3080074
S3150800406020443030E90702D0C7F3071105E001788C
S31508004070C7F3032201F0F0011143017026E0206A1C
S3150800408000EB15212046FFF798FF060020D1E8B27D
S3150800409004EB4000B9B2303000F075F816E0206A3B
S315080040A000EBD5112046FFF788FF060010D140F235
S315080040B0FF1000EA8500204430300546FFF70DFF63
S315080040C067F31B000146284600F055F884F803906C
S315080040D03046BDE8F087FFF7B1BB2DE9F04105682A
S315080040E013460E46074602292DD36869B0422AD9D7
S315080040F03BB14FF0FF3219462846FFF777FF0028F5
S315080041001FD131463846FFF715FE040018D0012C9A
S3150800411019D0601C19D0002231462846FFF766FFE1
S3150800412000280ED1D5E90410821E914205D2491CF9
S315080041302961297941F0010129712646B042E0D862
S315080041400020BDE8F0810220FBE70120F9E770B501
S315080041500C460646154691B204F11A0000F013F80B
S315080041603078032806D1290C04F11400BDE8704004
S3150800417000F009B870BD0170090A4170090A81701A
S31508004180090AC17070470170090A4170704700003A
S3150800419070B5044600F040F8050036D120780328AB
S315080041A02CD12079012829D1420204F130000021BE
S315080041B00646FFF7F9FE4AF6552104F22E20FFF7C8
S315080041C0E2FF13493046FFF7D6FF124904F505709A
S315080041D0FFF7D1FF04F506702169FFF7CCFF04F558
S315080041E00770E168FFF7C7FFE2690123521CE26224
S315080041F060783146FFF7CEF90020207100226078FA
S315080042001146FFF79FF900B10125284670BD000049
S3150800421052526141727241612DE9F0410446C078FB
S315080042200027F8B1E56A04F13001607801232A46CF
S315080042308846FFF7AFF908B1012713E00020E070C0
S31508004240206AA169281A88420CD2A67808E0A069D3
S315080042500123054460782A464146FFF79BF9761EF6
S31508004260022EF4D23846BDE8F08170B50E46040039
S315080042704FF009050CD0206850B1017841B1A188EA
S31508004280C288914204D14078FFF778F9C00703D075
S3150800429000203060284670BD00252068F9E7000038
S315080042A000000000000001020304060708090000D8
S315080042B0000001020304000610160006101600008E
S315080042C0E04200080000002084000000DA2F000801
S315080042D06443000884000020B4490000EA2F00085F
S315080042E0FF000000FF000000FF00FFFFFF40818085
S315080042F0D8007F6A00FFFFFF000000D500F9010023
S3150800430000000000000000000024F4000100000086
S31508004310100000000000000000000000000000007F
S31508004320000000000000000001000000000000007E
S31508004330000000000000000000000000000000006F
S31508004340A52F0008B12F0008AD2F0008B52F0008CB
S31508004350A92F00080000000000000000000000006F
S30908004360000000004B
S7050800018968
