:020000040800F2
:10000000B88A002069020008934A0008BF3100083E
:1000100005480008430600080961000800000000C8
:10002000000000000000000000000000E75400088D
:10003000610B000800000000954A000843550008C5
:10004000830200088302000883020008830200087C
:100050008302000883020008F10D000883020008F3
:10006000F70D0008FD0D0008030E000883020008CC
:10007000830200088302000883020008850A000842
:10008000A10A000883020008830200088302000816
:10009000830200088302000883020008090E00089A
:1000A000830200088302000883020008830200081C
:1000B000830200088302000883020008830200080C
:1000C00083020008830200088302000883020008FC
:1000D000830200087D5F0008830200081D6000089D
:1000E00083020008830200088302000883020008DC
:1000F00083020008830200088302000883020008CC
:1001000083020008830200088302000883020008BB
:1001100083020008830200088302000883020008AB
:10012000830200088302000883020008830200089B
:10013000830200088302000883020008830200088B
:10014000830200088302000883020008830200087B
:10015000830200088302000883020008830200086B
:10016000830200088302000883020008830200085B
:1001700083020008830200088302000800000000D8
:10018000830200088302000800F002F800F05CF827
:100190000AA090E8000C82448344AAF10107DA45E2
:1001A00001D100F051F8AFF2090EBAE80F0013F0D8
:1001B000010F18BFFB1A43F001031847E85F000066
:1001C000086000000A444FF0000C10F8013B13F0E7
:1001D000070408BF10F8014B1D1108BF10F8015BA0
:1001E000641E05D010F8016B641E01F8016BF9D193
:1001F00013F0080F1EBF10F8014BAD1C0C1B09D1EA
:100200006D1E58BF01F801CBFAD505E014F8016B5B
:1002100001F8016B6D1EF9D59142D6D370470000ED
:100220000023002400250026103A28BF78C1FBD8FF
:10023000520728BF30C148BF0B6070471FB505F09B
:100240009CFF1FBD10B510BD00F070F91146FFF7FF
:10025000F5FF05F06BFF00F08EF903B4FFF7F2FF36
:1002600003BC00F095F900000948804709480047A1
:10027000FEE7FEE7FEE7FEE7FEE7FEE7FEE7FEE756
:10028000FEE7FEE704480549054A064B70470000B3
:10029000ED55000889010008B84A0020B88A0020FE
:1002A000B86A0020B86A002053EA020C00F06980A6
:1002B0002DE9F04B4FF00006002B1FBFB3FA83F57A
:1002C00003FA05F424FA05F65E4012BF1643B2FAAB
:1002D00082F502FA05F4C5F120051EBF22FA05FCDD
:1002E00044EA0C04203556EA044C4FEA144418BF83
:1002F000641C4FF000084FF00009904271EB030CB2
:1003000039D3002919BFB1FA81F701FA07F6B0FA1B
:1003100080F700FA07F6C7F120071EBF20FA07FC96
:1003200046EA0C062037B6FBF4FCA7EB0507103FA6
:1003300007F01F0BCBF120060CFA0BFB2CFA06F68C
:1003400044BFB3460026202FA4BF5E464FF0000BEB
:100350005BEA060C08BF4FF0010B19EB0B09ABFB76
:10036000027C48EB0608C01B06FB02CC0BFB03CC4F
:1003700071EB0C01C1E70B46024641464846BDE819
:10038000F08B13B54FF000004FF00001AFF3008089
:10039000BDE81C407047032A40F2308010F0030C87
:1003A00000F0158011F8013BBCF1020F624498BFC8
:1003B00011F801CB00F8013B38BF11F8013BA2F165
:1003C000040298BF00F801CB38BF00F8013B11F0E0
:1003D000030300F02580083AC0F0088051F8043B80
:1003E000083A51F804CBA0E80810F5E7121D5CBFED
:1003F00051F8043B40F8043BAFF30080D20724BF20
:1004000011F8013B11F801CB48BF11F8012B24BFB3
:1004100000F8013B00F801CB48BF00F8012B704702
:1004200010B5203AC0F00B80B1E81850203AA0E88F
:100430001850B1E81850A0E81850BFF4F5AF5FEAC3
:10044000027C24BFB1E81850A0E8185044BF18C976
:1004500018C0BDE810405FEA827C24BF51F8043B1D
:1004600040F8043B08BF7047D20728BF31F8023B71
:1004700048BF11F8012B28BF20F8023B48BF00F805
:10048000012B704702F0FF0343EA032242EA0242D3
:1004900000F002B84FF000020429C0F0128010F002
:1004A000030C00F01B80CCF1040CBCF1020F18BF50
:1004B00000F8012BA8BF20F8022BA1EB0C0100F0E3
:1004C0000DB85FEAC17C24BF00F8012B00F8012BB6
:1004D00048BF00F8012B70474FF0000200B51346EB
:1004E00094469646203922BFA0E80C50A0E80C5054
:1004F000B1F12001BFF4F7AF090728BFA0E80C5005
:1005000048BF0CC05DF804EB890028BF40F8042BFD
:1005100008BF704748BF20F8022B11F0804F18BF6A
:1005200000F8012B7047704770477047754600F020
:100530002BF8AE4605006946534620F00700854675
:1005400018B020B5FFF79EFEBDE820404FF0000632
:100550004FF000074FF000084FF0000B21F00701AB
:10056000AC46ACE8C009ACE8C009ACE8C009ACE8EE
:10057000C0098D46704710B50446AFF30080204691
:10058000BDE81040FFF769BE00487047584A002098
:1005900001491820ABBEFEE726000200704730B4C8
:1005A0000C46029DC0E90012898901810021418128
:1005B000C36005824182818201218175204630BC61
:1005C000114602F0ABB910B50022012304E050F847
:1005D0002240521CD2B2A3758A42F8D310BD70B526
:1005E000847D0025012C00D14582468A8E4217D396
:1005F000012C15D101895943FF23B1FBF3F189B2D5
:10060000418144680A2364B1042C11D001FB02F13A
:10061000B1FBF3F10268082C126810D011648575E3
:1006200070BD5143B1FBF3F1026812685163F6E704
:100630005143B1FBF3F1026812689163EFE7D163B4
:10064000EDE7FEE730B503464FF6FF7091B14AF291
:100650000104491E89B20ED313F8012B5040002229
:10066000C5074FEA500000D06040521CD2B2082AA1
:10067000F6D3EEE7002030BD1021014800F0DABBD0
:10068000E801002010B50446008C08442084208C2A
:10069000002804D00120207301F0F6F9A06010BDFD
:1006A0002DE97F4F29496422A1F1180003F07FFC56
:1006B00027496422A1F24C6003F079FC4FF4007BDF
:1006C0006BF30F04AA2060F31744552060F31F64F6
:1006D0002448224D224ECDE90260DFF878A01E4A60
:1006E000CDE900755146234602F5866000F0B8F862
:1006F0006BF30F042346AA2060F31743552060F3E1
:100700001F631B48DFF86090CDE90260174ACDE90E
:100710000075494602F52D7000F0A2F8002464F33C
:100720000F08234651461A461248CDF8008000F0C3
:10073000C5F8104864F30F08234649461A4684302A
:10074000CDF8008000F0BAF8BDE87F8F8806002061
:10075000C80C002050050020082100204954000842
:10076000895F0008915C000898050020082300209C
:10077000A95F000824250020074810B5436E0E220B
:10078000A0F130019847044884300E22436EBDE842
:100790001040A0F1A6011847382500207FB500249D
:1007A0000094AA268DF800608DF801408DF8024073
:1007B00001948DF803108DF80420190E8DF80510A2
:1007C000190C8DF80610089D190A02948DF807106F
:1007D00003948DF8083055218DF809408DF80D10DF
:1007E0008DF80A50694605F05FFC04B070BD2DE934
:1007F000FF4104460020DDE90A560090AA278DF843
:1008000000708DF801008DF80200019002900390B5
:100810008DF80420180E8DF80500180C8DF80600D0
:10082000180A8DF807008DF8083001208DF80900AE
:1008300055208DF803108DF80D008DF80A5069468B
:10084000204605F031FC044601F01EF9024621461F
:10085000304603F071FB04B02046BDE8F081000093
:100860002DE9F047044609A8089F90E84003A160DD
:1008700098B2114602461D4604F10C0004F008FD32
:10088000002020712070202084F86000280C607007
:10089000280EA070E7705EB1C4F86460C4E91A89DC
:1008A00004F13C01A068BDE8F047012202F0FEBB64
:1008B00001486066F2E700004954000810B5029C48
:1008C00080E80E008481034A0261202081F8410003
:1008D00010BD0000D90800080068002806D00029D3
:1008E00004D0002A02D0642302F018BC7047000034
:1008F0002DE9FE43334C4FF4967703250097CDE95D
:10090000015440F6B8363346002255212E4800F0F7
:100910005DF800972C48CDE901543346002255215B
:10092000303000F053F8284C022760340025207B3B
:10093000012804D0032807D004280BD010E0216937
:100940002046884727730BE0616920468847257356
:10095000258405E06169204688472573FFF78CFEF2
:10096000E169204688474FF00408B04203D9207B54
:1009700008B184F80C80144C4FF44876E434207BA2
:10098000012804D0032807D004280AD00DE02169EB
:1009900020468847277308E0616920468847257309
:1009A00003E02573616920468847E169204688474E
:1009B000B04204D9207B002801D084F80C80BDE827
:1009C000FE830000353300082C2600202DE9F04777
:1009D0000446DDE90996C07D1F4690468A460128F7
:1009E00005D00025032808D004280CD023E0A369F3
:1009F000204698470220E07526E0E16920468847B6
:100A0000E575A58520E0A16A20468847B0F5967F68
:100A100011D994F82E10494507D20120E07594F8B9
:100A20002E00401C84F82E000EE0E575E16920469A
:100A3000884706B1B047E07D052805D1216A2046E8
:100A40008847616A20468847A16A20468847B8429D
:100A500016D9E07D002813D00420E075216A2046D5
:100A60008847012000F002FEB8F1000F06D00022F6
:100A700051462046A369BDE8F04718470122F7E731
:100A8000BDE8F08710B5044800F07EFCBDE81040DA
:100A90000149024804F024B84804002060480020BE
:100AA00010B5044800F070FCBDE810400149024850
:100AB00004F016B8A8040020844800200168182318
:100AC000CAB2103AB2FBF3F2054B6FF30901032AE5
:100AD0009B5CC36500D9091D81650846704700000D
:100AE0008461000810B5014600208B698A6A4FF0C6
:100AF000C07453B1B3F5005F15D072B1012A0CD0A8
:100B0000022A0AD0032A09D104E01AB1012A06D028
:100B1000022A03D1C96AC90100D5012010BDC96AE2
:100B2000A142FAD010BD002AF7D0012AF2D0022A41
:100B3000F3D0032AF3D010BD30B50468256825F43E
:100B400080252560046863608368402B036803D0B8
:100B500099600068C26030BD9A600068C16030BDB5
:100B6000704700001CB504202C4B00900022194651
:100B70002B4800F067F80C200090284B28480822EA
:100B80001946303000F05EF825480123102225492F
:100B9000603000F0F1F82248012302222249E430BB
:100BA00000F0EAF85A218720CDE900011C482D23E6
:100BB00008221E49843000F0B1F80520B424CDE9A4
:100BC0000040174800231A461849A43000F0A6F840
:100BD00013480094002304221449C430019400F007
:100BE0009DF8134801F0B2FC0D490020888501F101
:100BF0003002908581F82E0082F82E006031088442
:100C000001F144000521426990470548C430B421F0
:100C1000426902B0BDE810401047000050020020B9
:100C20002C26002000080240000402409802002008
:100C30007003002010B5044600F026FF2169401A19
:100C400010BD000070B50D46044604992846C4E95D
:100C50000221C4E900530021E1750123A375A1829B
:100C600021610B49A1610B49E1610B4921620B49EB
:100C700061620B49A162114601F050FEE1686068B3
:100C800001F04CFE2046BDE8704000F00BB80000BB
:100C9000BD0C0008DB0C0008A50C0008B10C000816
:100CA000350C0008D0E90121C368006803F06ABE72
:100CB00010B5044600F0E8FE206110BD1CB5827539
:100CC000CDE900120446D4E90002D4E9021303F08E
:100CD00078FE00F0D9FE20611CBDD0E90121C36877
:100CE000006803F0B4BE30B4438902895C18A242A4
:100CF00002D9511A018100E00381018930BC00F062
:100D00002FB800897047028911448289914201D22B
:100D1000018100E00281018900F022B870B504462B
:100D2000DDE90456C4E9001208466381A58108493B
:100D30006161084921610849A1610849E1611146E1
:100D400001F0ECFD314620466269BDE87040104775
:100D5000610D0008030D0008070D0008E70C0008EE
:100D600001810A4603C804F0D0BB10B5044600F068
:100D70008BFEA168401A10BD30B401600C46828021
:100D800011464373002202738260084A0261084AD6
:100D90004261084A8261084AC26123B100222046AA
:100DA00030BC04F0CCBB0122F9E70000CF0D0008F5
:100DB000BD0D0008E50D00086B0D0008417B21B159
:100DC00000228188006800F05ABE0122F9E710B5C0
:100DD0000446427B8188006800F051FE00F054FE1A
:100DE000A06010BD10B5044600F04EFEA06010BD1E
:100DF000012000F033BD042000F030BD082000F0D9
:100E00002DBD102000F02ABD10B5202000F026FDD9
:100E1000BDE81040402000F021BD72B6FEE700683A
:100E2000814301D0002070470120704702688A4347
:100E30000260704702680A4302607047002229B1CD
:100E400001291AD002291BD04FF440720E490B68B9
:100E500023F440730B600B6813430B600A6822F0A5
:100E600078020A600A68022303EBC00002430A60AA
:100E7000086840F48030086070474FF48072E5E7FE
:100E80004FF40072E2E70000103C02401348016892
:100E900089050FD5016821F400710160016841F4F2
:100EA00000610160016821F400610160016841F4A2
:100EB00000710160016849050FD5016821F4806166
:100EC0000160016841F480510160016821F48051A2
:100ED0000160016841F4806101607047003C02409C
:100EE00008490A6822F440720A600A6842F0040263
:100EF0000A600A684FF4803343EA002002430A6024
:100F000070470000103C0240064A136823F4407307
:100F1000136013681360136843F0010313600170DA
:100F200070470000103C0240094910B50C6824F4D9
:100F300040740C600C6844F440740C600C6844F01D
:100F400001040C600260BFF36F8F436010BD0000AE
:100F5000103C0240074A136823F44073136013687F
:100F600043F480731360136843F00103136001803E
:100F700070470000103C0240074A136823F4407396
:100F80001360136843F400731360136843F00103A4
:100F90001360016070470000103C02401749086868
:100FA000C206174805D5C26942F01002C26110227C
:100FB0000A600A68920605D5C26942F00802C26159
:100FC00020220A600A68520605D5C26942F004026E
:100FD000C26140220A600A68120605D5C26942F061
:100FE0000202C26180220A600A68920705D5C269BE
:100FF00042F02002C2610220086070470C3C0240AF
:101000000000002070B5114904460020C86100F0BE
:101010003BFD06460E4D09E0601C07D024B100F0F0
:1010200033FD801BA04201D9032070BD2868C00396
:10103000F2D42868C00701D001202860286810F089
:10104000F200F2D0FFF7AAFF012070BD00000020DF
:101050000C3C024010B54FF4807421460748FFF75E
:10106000DEFE002808D00648C26890472146BDE849
:1010700010400248FFF7DABE10BD0000E401002076
:1010800034270020114B10B50C221149A3F1180090
:1010900000F04AF80D4C183C204621698847D4E9F5
:1010A0000112002005E000BF52F820305B1C04D084
:1010B000401CB0EB910FF7D310BD04F0C9F8034802
:1010C000E168BDE810401838084700004C270020B0
:1010D00000000E0830B1816821B1416811B100688B
:1010E00000F003B84FF0FF307047AFF3008000B559
:1010F00087B000210591009100F082F80290012054
:1011000003900220049000F057FB10B1012007B0BB
:1011100000BD05A9684600F0BBFA08B10220F6E759
:1011200000F002FB0020F2E780E80E000349C160F6
:1011300003490161034941617047000079110008CA
:1011400049110008D510000830B1816821B142680A
:1011500012B1006800F003B84FF0FF30704710B5CF
:101160000B0006D02AB101461846FFF759F90020B6
:1011700010BD4FF0FF3010BD816830B10A0004D0BF
:10118000426812B1006800F003B84FF0FF307047BA
:101190002DE9F04116460C00054606D02EB1FFF7AA
:1011A000A6FF28B10120BDE8F0814FF0FF30FAE73B
:1011B000F61CB70800F000FB00260DE000232946CE
:1011C0000220226800F0BAFA18B100F0ADFA02204D
:1011D000E9E7241D2D1D761CBE42EFD300F0A4FAD2
:1011E0000020E0E70268891A091107D400898842C3
:1011F00004DD0020082303EB011150547047000068
:101200000021A0F1006343F6FF72934246D32449C4
:101210000144914201D2012140E02249014491421E
:1012200001D202213AE020490144914201D2032136
:1012300034E01E494FF6FF720144914201D204216D
:101240002CE01B4942181B498A4201D2052125E0A6
:10125000194A02448A4201D206211FE0174A024479
:101260008A4201D2072119E0154A02448A4201D27A
:10127000082113E0134A02448A4201D209210DE0F9
:10128000114A02448A4201D20A2107E00F4A10445F
:10129000884201D20B2101E04FF0FF310846704730
:1012A00000C0FFF70080FFF70040FFF70000FFF7E6
:1012B0000000FEF7FFFF01000000FCF70000FAF756
:1012C0000000F8F70000F6F70000F4F70000F2F76E
:1012D0002DE9F0410446876D00F0D6FB064694F8F0
:1012E00035000025022806D08020606584F834503F
:1012F0000120BDE8F0812068016821F0160101603D
:101300002068416921F080014161206C08B9A06C1E
:1013100020B12068016821F008010160206801689F
:1013200021F0010101600CE000F0AEFB801B0528FC
:1013300007D920206065032084F8350084F83450F4
:10134000D7E720680068C007EED194F85C103F2012
:101350008840B860012084F8350084F834500020BB
:10136000C7E790F83510022903D08021416501209C
:101370007047052180F835100068016821F00101EF
:1013800001600020704700002DE9F84304464FF04B
:101390000009CDF8009063484FF41651A56D006820
:1013A000B0FBF1F72E6894F85C10082000FA01F108
:1013B00031420FD021680A6852070BD50A6822F023
:1013C00004020A6094F85C108840A860606D40F0E8
:1013D0000100606594F85C104FF0010808FA01F014
:1013E000304208D021684969090604D5A860606DBB
:1013F00040F00200606594F85C10042088403042A0
:1014000008D021680968890704D5A860606D40F09C
:101410000400606594F85C1010208840304218D0B9
:1014200021680968090714D5A86020680168490384
:1014300004D50068000308D5A16C07E00168C90560
:1014400003D4016821F008010160216C09B1204634
:10145000884794F85C1020208840304231D02168C1
:101460000968C9062DD5A86094F8350005282068BC
:10147000016806D0490347D5006800031DD4616C9C
:101480001CE021F0160101602068416921F0800113
:101490004161206C08B9A06C20B12068016821F07E
:1014A0000801016094F85C103F208840A86084F82F
:1014B000358084F83490216D1FE0E16B09B120463E
:1014C0008847606D00282BD0606DC00714D00520C0
:1014D00084F835002068016821F00101016000985E
:1014E000401C0090B84203D820680068C007F6D1BD
:1014F00084F8358084F83490E16C002910D001B074
:101500002046BDE8F04308470168C905D5D4016805
:1015100021F01001016084F8358084F83490CCE724
:10152000BDE8F8832C0000202DE9F041044600F0CE
:10153000ABFA06465CB1022084F83500002584F839
:1015400034502068016821F0010101600DE00120A4
:10155000BDE8F08100F098FA801B052805D920200D
:101560006065032084F83500F2E720680068C00752
:10157000F0D12268116820480140D4E901031843E2
:10158000D4E903363343184363691843A369184306
:10159000E3691843236A18430843616A042903D1A5
:1015A000D4E90B1319430843106020684069666A48
:1015B00020F0070130460E43012704280CD1A06A11
:1015C0000643E06A40B12046FFF78CFA20B1402084
:1015D000606584F83570BAE7206846612046FFF7F9
:1015E0006DFA94F85C203F2191408160656584F834
:1015F00035700020ACE700003F8010F02DE9F0418D
:101600000446866D90F83400002501280DD0012095
:1016100084F8340094F835700020012F07D084F846
:10162000340002252846BDE8F0810220FBE70227AE
:1016300084F8357060652046FFF77EFA94F85C10F8
:101640003F208840B0602068016841F016010160C9
:10165000206C20B12068016841F008010160206819
:10166000016841F001010160DCE7000070B504464B
:1016700000F00AFA0546601C02D0044800780444D1
:1016800000F002FA401BA042FAD370BD20000020F7
:101690002DE9F047044622480F46017E01290AD071
:1016A0000121804601764CF250394846FFF7AAFCEA
:1016B000020003D02FE00220BDE8F0874FF0FF309A
:1016C00038602068174D012801D0A6681CE0207CF6
:1016D0006168FFF705FC4846FFF794FC024628685E
:1016E00020F00400286014E0217C3046FFF7A6FBC0
:1016F0004846FFF787FC0200286820F07A0028603F
:1017000001D03E6005E0761CD4E902100844B042E6
:10171000EAD8FFF7BBFB002188F818101046CBE78A
:1017200000000020103C02400348016841F00041E5
:101730000160002070470000103C02402DE9F04796
:101740001B4E05461446307E1F468946012808D0A8
:10175000012030764CF250384046FFF753FC18B168
:1017600014E00220BDE8F0879DB1012D16D0022DB6
:1017700019D022463B464846FFF7D6FB4046FFF7C6
:1017800041FC0C490A6822F001020A60002131760E
:10179000E8E7E1B24846FFF7B7FBEFE7A1B24846FA
:1017A000FFF7D8FBEAE721464846FFF7E5FBE5E708
:1017B00000000020103C0240074900200A68002A6F
:1017C00009DA054A054B0C3A1360054B13600968AA
:1017D000002900DA01207047103C024023016745D0
:1017E000AB89EFCD10B5102810D007DC04280BD042
:1017F00008282DD1BDE8104001F0A2BD202809D055
:10180000402825D102211EE001211CE0BDE8104046
:1018100001F0D6BD0F4C2046A1698847208C0028D6
:1018200016D0208C401E20844FF400410A48FFF758
:1018300001FB208C00280BD1207B002808D003203E
:1018400020734FF48031BDE810400348FFF7F2BA2F
:1018500010BD00008C260020E8010020044910B5CE
:101860000A68024202D00860FFF7BCFF10BD00000A
:10187000143C01402DE9F84FDFF8BCA100220125FE
:1018800003264FF00F090AF1040BAAF1040E00BF62
:101890000B6805FA02F42340A34270D10F7907F0D8
:1018A0000307012F01D0022F16D187684FEA4208A3
:1018B00006FA08FC27EA0C07D1F80CC00CFA08FC61
:1018C0004CEA070CC0F808C04768A7430C79C4F37A
:1018D000001494403C4344600C79E443A4070AD0CC
:1018E000C4684FEA420C06FA0CF7BC438F6807FA4B
:1018F0000CF72743C7600C7904F00304022C12D1C3
:10190000D40800EB840CDCF820405707FF0E09FADE
:1019100007F824EA0804D1F8108008FA07F848EA22
:101920000408CCF8208004684FEA420C06FA0CF751
:10193000BC430F7907F0030707FA0CF7274307604A
:101940004C6814F4403F70D03C4C276847F4804703
:101950002760246822F0030704F480440094384C84
:1019600007EB040CDCF8084897074FEA177809FAE8
:1019700008F7BC43334FB84202D1002724E054E0BB
:10198000314FB84201D101271EE0304FB84201D19A
:10199000022719E02E4FB84201D1032714E02D4F42
:1019A000B84201D104270FE02B4FB84201D10527DF
:1019B0000AE02A4FB84201D1062705E0284FB84275
:1019C00001D1072700E0082707FA08F72743CCF8DA
:1019D0000878DAF800405746D1F804C09C435FEA23
:1019E000CC2C00D51C433C60DBF800405F46D1F8AE
:1019F00004C09C435FEA8C2C00D51C433C60DEF89D
:101A000000407746D1F804C09C435FEA8C3C00D587
:101A10001C433C60084F083F3C68D1F804C09C431D
:101A20005FEACC3C00D51C433C60521C102AFFF4FA
:101A30002FAFBDE8F88F0000083C01404438024059
:101A40000030014000000240000402400008024053
:101A5000000C024000100240001402400018024036
:101A6000001C02400069084000D001207047426914
:101A700021EA02030A4043EA0241816170470AB148
:101A8000816170470904FBE70148806870470000E6
:101A90002000002070B5040013D021684CF6CC4023
:101AA0000860216845F255500860D4E900014160A2
:101AB0002168A0688860FFF7E7FF054641F6010648
:101AC0000DE0012070BD00BFFFF7DEFF401BB042FC
:101AD00005D92068C068800701D0032070BD206848
:101AE000C0688007F0D121684AF6AA20086000206B
:101AF00070BD00684AF6AA2101600020704700000E
:101B000002488168027811448160704720000020FB
:101B10000B4810B5016841F400710160016841F49F
:101B200080610160016841F480710160032000F070
:101B30006FF80F2000F006F800F024F8002010BD28
:101B4000003C024070B50D4D04464FF47A71287880
:101B5000B1FBF0F00A490968B1FBF0F000F0A6FB18
:101B600048B9102C07D200222146501E00F030F850
:101B700000206C6070BD012070BD000020000020BE
:101B80002C0000200A4808B5016841F4804101603A
:101B9000006800F4804000900548001F016841F093
:101BA00080510160006800F08050009008BD000086
:101BB00044380240002809DB00F01F020121914057
:101BC0004009800000F1E020C0F8001170470000DB
:101BD000F0B40E4B1B680C46C3F30223C3F1070598
:101BE000042D00D90425191D072901D2002300E086
:101BF000DB1E012606FA05F1491E214099409E4050
:101C0000761E16403143F0BC04F07FBA0CED00E0C4
:101C1000064900F0070208684FF6FF03184040EA43
:101C20000220034A10430860704700000CED00E0FA
:101C30000000FA052DE9F0470E46050065D0DFF8F3
:101C40001481D8F80000F7B200F00700B04207D2C4
:101C500088F80070D8F8000000F00700B04254D1B6
:101C600028683D4C810712D5400703D5206840F411
:101C7000E05020602878000703D5206840F46040D9
:101C800020602068A96820F0F000084320602878D0
:101C9000C0072DD0304968680839012812D00228C1
:101CA00013D0032811D00968890700292DDA21688B
:101CB00021F0030101432160FFF7E6FE814641F276
:101CC000883A0EE009688903EFE709688901ECE7C3
:101CD000FFF7DAFEA0EB0901514502D90320BDE868
:101CE000F0872068696800F00C00B0EB810FEFD13D
:101CF000D8F80010404601F00701B14207D907703B
:101D0000006800F00700B04201D00120E7E7287822
:101D1000400705D52068E96820F4E05008432060BA
:101D20002878000706D52068296920F4604040EA39
:101D3000C100206000F038F82168084AC1F303119F
:101D4000515CC8400649086006480068FFF7FAFE83
:101D50000020C4E7003C0240083802408C610008C3
:101D60002C00002024000020044805490068096870
:101D7000044AC1F38221515CC84070472C00002006
:101D8000083802409C610008044805490068096859
:101D9000044AC1F34231515CC84070472C00002016
:101DA000083802409C610008154810B5006810F022
:101DB0000C02144813D01449042A0FD0082A0ED15B
:101DC0000F4C241F2268236802F03F025B0207D5F4
:101DD0002068C0F38810A0FB010106E0084610BD92
:101DE0002168C1F38811A1FB00010023FEF75CFA12
:101DF0002168C1F30141491C4900B0FBF1F010BD5D
:101E0000083802400024F40040787D012DE9F84FA5
:101E1000040076D02078DFF85C93C007A9F10405B0
:101E20004CD009F104000168C1F38101012908D0F7
:101E30000068C0F3810002280AD1D9F800004002EE
:101E400006D52868800339D560680028E1D035E0E0
:101E50006068B0F5803F12D0B0F5A02F286812D08E
:101E600020F480302860286820F480202860606892
:101E700040F6B836A8B1FFF707FE07460DE0286820
:101E800040F48030F2E740F480202860F7E700BF9C
:101E9000FFF7FAFDC01BB04273D828688003F7D55E
:101EA0000CE0FFF7F1FD074605E000BFFFF7ECFD92
:101EB000C01BB042F0D828688003F7D42078DFF840
:101EC000B88280074FF0000A44D5AA48001D016877
:101ED00011F00C0F08D00068C0F38100022811D166
:101EE000D9F8000040020DD42868800702D5E068C8
:101EF000012806D12868216920F0F80040EAC100D5
:101F000018E033E1E068B8B10120C8F80000FFF73D
:101F1000BBFD064605E000BFFFF7B6FD801B0228AB
:101F2000BAD828688007F7D5286820F0F80120691A
:101F300041EAC00028600DE0C8F800A0FFF7A4FD4A
:101F4000064604E0FFF7A0FD801B022819D8286888
:101F50008007F7D42078000722D5864E874861692C
:101F6000703679B101210160FFF78EFD074604E06C
:101F7000FFF78AFDC01B022803D830688007F7D519
:101F80000EE088E0C0F800A0FFF77EFD074604E001
:101F9000FFF77AFDC01B02287DD830688007F7D490
:101FA0002078400768D5DFF8CCB100270BF13C0B57
:101FB000DBF80000C0000BD4DBF8001041F08051CA
:101FC000CBF80010DBF80000012700F080500090F3
:101FD0006B4E3068C00510D4306840F480703060BB
:101FE000FFF752FD009005E0FFF74EFD0099401A03
:101FF000022850D83068C005F6D55E4EA0686C3611
:1020000001280FD00528306810D020F00100306082
:10201000306820F004003060A068B8B1FFF734FDEC
:1020200000900FE0306840F00100F4E740F0040059
:102030003060F7E7FFF728FD0099411A41F2883038
:10204000814266D830688007F4D50EE0FFF71CFDAA
:10205000009007E0FFF718FD0099411A41F288301F
:10206000814256D830688007F4D42FB1DBF80010D5
:1020700021F08051CBF80010A069C8B33D49091D7B
:102080000968C1F3810102294AD00228504607D0CD
:10209000C8F8600000E03CE0FFF7F6FC04463BE0D7
:1020A0004746C8F86000FFF7EFFC064605E000BFB2
:1020B000FFF7EAFC801B02282BD828688001F7D4A0
:1020C000D4E907010843A16A2E4A490802EB0141FD
:1020D000626A41EA8211084394F82C1040EA0161D7
:1020E000C9F8001001203866FFF7CEFC044606E070
:1020F0003EE000BFFFF7C8FC001B022809D8286893
:102100008001F7D534E000BFFFF7BEFC001B0228BA
:1021100002D90320BDE8F88F28688001F4D427E0B5
:102120000128F7D0D9F80000E26900F4800191425B
:102130001CD1226A00F03F01914217D147F6C071CD
:10214000626A0140B1EB821F10D1A26A4FF0FF33E7
:1021500000F4403103EB5202B1EB024F06D194F888
:102160002C1000F07060B0EB016F01D00120D1E7BE
:102170000020CFE70438024000004742800E47426B
:10218000007000400000FFFF70B5040009D0606AD5
:10219000002540B125616561A56294F8510040B108
:1021A0000CE0012070BD6068B0F5827FF4D0E5617D
:1021B000F2E784F85050204600F044F8022084F8FA
:1021C00051002068016821F040010160A088218948
:1021D00000F4827001F404410843A18901F4006114
:1021E0000843217C01F002010843217D01F0010137
:1021F0000843218B01F400710843217F01F038016D
:10220000084394F8201001F080010843218D01F467
:102210000051084321680860A069042101EA1040C8
:1022200094F8241001F010010843216848602068E8
:10223000C16921F40061C1616565012084F8510024
:10224000002070BD10B586B0044614216846FEF724
:1022500043F913492068884220D1124800210268BE
:1022600042F480520260006800F4805005900D48EE
:102270001438026842F001020260006800F00100B8
:102280000590E02000900220CDE901010320039099
:102290000520049069460448FFF7ECFA06B010BD2B
:1022A00000300140443802400000024010B5401E9A
:1022B000B0F1807F01D3012010BD4FF0E0246061B8
:1022C0000F21601703F021FF0020A061072020618B
:1022D000002010BD10B590F83C20012A22D0012228
:1022E00080F83C20CA688C6822F4407222434C6813
:1022F00022F4806222430C6822F4006222430C69BB
:1023000022F4805222434C6922F400522243C969CC
:10231000002322F480420A4301684A6480F83C307A
:10232000002010BD022010BD70B590F83C20012A9D
:1023300032D0012480F83C40022280F83D2003681E
:102340005A689D6822F070060A6832435A60134B3F
:1023500002689A4214D0B2F1804F11D0104B9A42C9
:102360000ED0104B9A420BD00F4B9A4208D00F4B15
:102370009A4205D00E4B9A4202D00E4B9A4204D19B
:10238000496825F080031943916080F83D400021A1
:1023900080F83C10084670BD022070BD000001406E
:1023A0000004004000080040000C00400004014010
:1023B000004001400018004010B5040003D094F81C
:1023C0003D0010B107E0012010BD002084F83C0062
:1023D000204600F01FF8022084F83D00211D2068EF
:1023E00003F00CF9012084F8460084F83E0084F8DC
:1023F0003F0084F8400084F8410084F8420084F8EB
:10240000430084F8440084F8450084F83D0000202F
:1024100010BD00002DE9F84F0646434902684348C5
:1024200000258A4205D1016841F001010160006880
:1024300049E03E49091FB2F1804F3FD03C4B9A42E0
:1024400045D1086840F00200086008683A4C00F086
:102450000200009004F10C024FF480694FF4006A0E
:102460004FF4005B82E8200EE561324825624FF0B0
:1024700020674FF04008656284E881012046FFF73D
:1024800053F808B1FEF7C9FC7462B463A6632A4C22
:102490002848603404F10C01183081E8200EE56111
:1024A0002562656284E881012046FFF73DF808B1A6
:1024B000FEF7B3FCB462A663BDE8F88F086840F08D
:1024C00001000860086800F001000090F4E71B4B71
:1024D0009A4207D1086840F008000860086800F0D8
:1024E0000800F2E7164B9A4207D1086840F0200036
:1024F0000860086800F02000E7E712498A4207D127
:10250000016841F400310160006800F40030DCE74C
:102510000D498A42D0D1016841F4802101600068F0
:1025200000F48020D1E70000000001404438024060
:10253000000400407060024048040020000C00408D
:1025400000140040004401400048014090F83D1054
:10255000012901D001207047022180F83D10006858
:102560001149884214D0B0F1804F11D00F498842F0
:102570000ED00F4988420BD00E49884208D00E4930
:10258000884205D00D49884202D00D49884204D1C5
:10259000816801F00701062903D0016841F00101BB
:1025A000016000207047000000000140000400406E
:1025B00000080040000C00400004014000400140C1
:1025C0000018004070B5044690F83C000025012832
:1025D00017D0012684F83C60022084F83D00206872
:1025E000826822F0770222F47F42826008685028D5
:1025F00038D00DDC20284FD005DC90B3102811D145
:102600004AE0022070BD302846D040280AD13BE085
:1026100060282FD070280DD0B0F5805F03D0B0F5C2
:10262000005F12D0012584F83D60002084F83C0052
:10263000284670BDCB68D1E90121206803F0C8F8B5
:102640002068816841F0770109E0CB68D1E9012178
:10265000206803F0BDF82068816841F48041816002
:10266000E1E719E0CA684968206803F085F950215C
:10267000206806E0CA684968206803F08EF9602186
:10268000206803F0AFF8CEE7CA684968206803F015
:1026900073F940212068F4E7226801461046F0E70C
:1026A00070470000F0B587B0044614216846FDF776
:1026B00013FF464A2168002445480225012691421D
:1026C0000FD1016841F0100101600068694600F017
:1026D000100005904FF4D4400090CDE901543D48DE
:1026E0003AE03D4A3D4FB1F1804F14D03C4E0323B8
:1026F000B14237D1016841F0020101600068CDE9C3
:10270000024300F0020005903020CDE90005694643
:102710003846049522E0016841F00101016001683A
:1027200001F001010591016841F0020101600068BA
:10273000694600F00200059048F204000090CDE9DF
:102740000154CDE903461046FFF794F808200090A5
:10275000CDE9015469463846CDE90346FFF78AF8CA
:1027600007B0F0BD1F4EB1420FD1016841F0010129
:10277000016000680093CDE9015400F00100CDE94B
:102780000450694603941046E8E7174A914209D17C
:10279000016841F002010160006800F0020005904C
:1027A00090150BE0114A9142DAD1016841F0020123
:1027B0000160006800F00200059050150090CDE91E
:1027C0000154CDE9034369463846C7E7000001409C
:1027D0003038024000100240000002400004024075
:1027E00000040040000C004000440140004801404B
:1027F00070B5044690F83C0000260D4601280FD025
:10280000012084F83C006AB1042A1DD0082A2FD088
:102810000C2A3FD00126002084F83C00304670BDD1
:10282000022070BD206802F0E5FF2068816941F058
:10283000080181612068816921F0040181612068BB
:1028400081692A69114311E0206803F003F82068C8
:10285000816941F4006181612068816921F48061AE
:102860008161206881692A6941EA02218161D2E798
:10287000206803F025F82068C16941F00801C161B2
:102880002068C16921F00401C1612068C1692A6919
:10289000114311E0206803F047F82068C16941F452
:1028A0000061C1612068C16921F48061C161206853
:1028B000C1692A6941EA0221C161ACE710B504008F
:1028C00003D094F83D0010B107E0012010BD0020B6
:1028D00084F83C00204600F01EF8022084F83D00F9
:1028E000211D206802F08AFE012084F8460084F849
:1028F0003E0084F83F0084F8400084F8410084F8EA
:10290000420084F8430084F8440084F8450084F8C9
:102910003D00002010BD70477047704710B5044659
:10292000022249B104290ED0082913D094F841009D
:10293000012816D0012010BD94F83E000128F9D1DD
:1029400084F83E200FE094F83F000128F2D184F88B
:102950003F2008E094F840000128EBD184F84020A3
:1029600001E084F841200122206802F0AFFE164900
:102970002068164A884201D0904203D1436C43F448
:10298000004343642068884213D0B0F1804F10D0D8
:102990000F4988420DD00F4988420AD00E4988421B
:1029A00007D0904205D00D49884202D00C49884298
:1029B00004D1816801F00701062903D0016841F0C4
:1029C00001010160002010BD000001400004014031
:1029D0000004004000080040000C0040004001409E
:1029E000001800402DE9F04117460D0004464FF055
:1029F00000060CD0042D11D0082D16D094F84100FB
:102A0000022819D094F84100012818D07CE094F8ED
:102A10003E00022810D094F83E00F5E794F83F00FD
:102A2000022809D094F83F00EEE794F8400002280D
:102A300002D094F84000E7E70220BDE8F081002FC3
:102A400062D0002B60D04D494D4ADFF838C10220DA
:102A50004DB1042D18D0082D27D084F841000C2D3D
:102A600044D0012687E084F83E00606AC163606A52
:102A700039460264606AC0F84CC02268606A343229
:102A8000FEF7BCFD88BB21E084F83F00A06AC1636B
:102A9000A06A39460264A06AC0F84CC02268A06AE5
:102AA0003832FEF7ABFD00BB15E084F84000E06A69
:102AB000C163E06A39460264E06AC0F84CC022682B
:102AC000E06A3C32FEF79AFD78B909E02068C168F7
:102AD00041F400711EE02068C16841F4806119E092
:102AE0002068C16841F4006114E00DE0206BC1630F
:102AF000206B39460264206BC0F84CC02268206B02
:102B00004032FEF77BFD08B1012096E72068C168DE
:102B100041F48051C16001222946206802F0D6FDAF
:102B200019492068194A884201D0904203D1436C68
:102B300043F4004343642068884213D0B0F1804FCF
:102B400010D0134988420DD0124988420AD0124948
:102B5000884207D0904205D01049884202D01049DF
:102B6000884204D1816801F00701062903D0016879
:102B700041F00101016030465FE70000E7560008C0
:102B8000455700087D57000800000140000401403F
:102B90000004004000080040000C004000400140DC
:102BA0000018004070B50D0004464FF0000607D035
:102BB000042D0CD0082D11D00C2D16D0012648E084
:102BC0002068C16821F40071C160606A13E0206868
:102BD000C16821F48061C160A06A0CE02068C1680E
:102BE00021F40061C160E06A05E02068C16821F459
:102BF0008051C160206BFEF7B4FB0022294620689B
:102C000002F064FD184B41F2111120688A109842BD
:102C100002D0164B984209D1036A0B4206D1036ACF
:102C2000134203D1436C23F4004343642068036AD6
:102C30000B4206D1016A114203D1016821F0010162
:102C4000016001203DB1042D08D0082D09D084F881
:102C50004100304670BD84F83E00FAE784F83F003A
:102C6000F7E784F84000F4E7000001400004014069
:102C700070477047F8B5016804460868CA684B6930
:102C800010F00F0F4FF0000559D003F0010602F4C9
:102C90009077374365D0C10705D0D10503D5616C66
:102CA00041F001016164410705D5D90703D0616C8A
:102CB00041F002016164810705D5D90703D0616C39
:102CC00041F004016164010707D502F0200131439E
:102CD00003D0616C41F008016164616C00293AD055
:102CE000800604D5900602D5204602F096FE2068A4
:102CF0004069616CC0F38010090700D460B32046BE
:102D000002F064FE20684069400621D52068143036
:102D100050E8001F21F0400140E80012002AF5D1E0
:102D2000E06BA8B172490165E06BFEF71AFB002861
:102D300011D0E06B016D01B0BDE8F040084783069B
:102D40000FD593060DD52046BDE8F84002F065BECC
:102D50002046FFF78EFFF8BD2046FFF78AFF656427
:102D6000F8BD266B2023012E7ED1C6067CD5D60663
:102D70007AD508684868009048694FF00206400616
:102D80004DD5E26B106840684FF480770004000C6A
:102D90003AD0A18D814237D9E085D069B8422DD093
:102DA00020680C3050E8001F21F4807140E80012C8
:102DB000002AF5D12068143050E8001F21F00101ED
:102DC00040E80012002AF5D12068143050E8001FB6
:102DD00021F0400140E80012002AF5D184F8423089
:102DE000256320680C3050E8001F21F0100140E8F6
:102DF0000012002AF5D1E06BFEF76AFA6663A08D37
:102E0000E18D401A81B206E0A18D8142A8D1D0693E
:102E1000B842A5D166632046FFF72AFFF8BDA08D12
:102E2000E18D401A81B2E08D0028F7D00029F5D05D
:102E300020680C3050E8002F22F4907240E8002700
:102E4000002FF5D12068143050E8002F22F0010245
:102E500040E80027002FF5D184F842302563206830
:102E60000C3050E8002F00E006E022F0100240E8AD
:102E70000023002BF3D1CDE705062BD5150629D568
:102E800094F841002128C9D1A068B0F5805F01D134
:102E90002069B0B1206A411C216221680078486035
:102EA000E08C401E0004000CE084B7D12068C168AB
:102EB00021F08001C1602068C16841F04001C1601B
:102EC000F8BD206A0088C0F308004860206A801CB2
:102ED0002062E5E74006F3D55006F1D5CA682046E2
:102EE00022F04002CA6084F8413000F067F9F8BD72
:102EF000BF59000870B5040004D094F841000025C3
:102F000010B106E0012070BD84F84050204600F06A
:102F100023F8242084F841002068C16821F400517E
:102F2000C160204602F0DAFD2068016921F4904179
:102F300001612068416921F02A0141612068C1686E
:102F400041F40051C1606564202084F8410084F898
:102F500042006563002070BDF0B587B004461421BF
:102F60006846FDF7B9FA4A48484B226800244849A8
:102F70001038022503269A422ED10A6842F48012A4
:102F80000A60096801F480110591016841F00401AB
:102F90000160016801F004010591016841F0080138
:102FA0000160006802AA00F0080005909814CDE9BD
:102FB0000005082782E8D00069463648FEF75AFC2B
:102FC0000420CDE9000502AA694682E8D000324813
:102FD000FEF750FC07B0F0BD304B07279A422ED1C8
:102FE0002B49091D0A6842F010020A60096801F0C5
:102FF00010010591016841F001010160006802AA19
:1030000000F00100059082E8D0005815CDE90005D8
:10301000234C69462046FEF72DFC2015CDE900051E
:1030200002AA012082E8C10069462046FEF722FC80
:10303000002211462520FEF7CBFD252023E0194B69
:103040009A42C7D10A6842F480220A60096801F4F2
:1030500080210591016841F002010160006802AA27
:1030600000F0020005904FF44060CDE9000582E8D1
:10307000D00069460C48FEF7FDFB002211462720D0
:10308000FEF7A6FD2720FEF795FDA3E700500040C0
:103090004038024000080240000C0240001001408D
:1030A00000000240004800400004024090F8423016
:1030B000202B01D00220704721B11AB100230363F5
:1030C00002F092BD0120704710B5124A0446906884
:1030D000A0420BD192F83C100E48126A0C30904777
:1030E0000C4901223C312046FFF7E0FF0A4A906874
:1030F000A0420DD192F83C100748126A0C3090475C
:10310000054920460122BDE810403C31FFF7CEBF03
:1031100010BD000038250020BC2500202DE9F84313
:10312000044690F84100984616460D46202802D0E5
:103130000220BDE8F88385B17EB1002060642120C3
:1031400084F84100FEF7A0FCA6848146E684A068CE
:103150002027B0F5805F02D003E00120E9E7206975
:1031600010B12E4600250EE000260CE080212046FE
:1031700002F055FDA8B9C6B116F8010B21684860E8
:10318000E08C401EE084E08C4B464FF00002CDF80E
:1031900000800028EAD14FF04001204602F03FFDB8
:1031A00040B184F841700320C3E735F8020BC0F347
:1031B0000800E3E784F841700020BAE77047FEE7B3
:1031C0002DE9FF4180213248FDF729FE314E324C76
:1031D0000025A0B32078FF27CDE900070295B0892C
:1031E000ADF80C00B07B8DF80E00232220212B4877
:1031F000039B00F0B9FBFEF747FCA168401AFA28D0
:103200001BD96078CDE90007B089ADF80800B07B24
:103210008DF80A0041223E212048029B01F060FF08
:1032200060780A280CD00A20607041223E211B4899
:1032300001F0CCFDFEF728FCA060BDE8FF8101E0B5
:103240006570F2E72078CDE9000536F81B0FADF880
:103250000800B0788DF80A00232220210F48029B35
:1032600001F03EFF2078CDE900053088ADF8080078
:10327000B0788DF80A0041223E210848029B01F0F7
:103280002FFF04B00548BDE8F04101F039BC000053
:10329000E8010020300000201C01002060480020D0
:1032A0002DE9F04F93B0214E1D4FDFF87890DFF8F5
:1032B00078A00AA800244FF00F0B06F27448119072
:1032C0004FF44870CDE90AB00CA90A2081E88106C4
:1032D00001208DF840001648ADF81C401C2250F823
:1032E00024000890124811994C3030F82400ADF8B1
:1032F00024006846FDF794F80DF11C0CC4EB041093
:103300009CE80E0006EB8000054600F0BEF848F889
:103310002450641CA4B2132CD2D313B0BDE8F08F98
:103320002D360008E3340008E53400085827002053
:103330006C00002008210148FDF77CBDE801002059
:1033400070B51A480068406A082186B21848FEF72E
:1033500089FB184D184C38B16888864209D24FF65F
:10336000FF71081A304405E0616A134888476E808F
:1033700070BD301A298880B2B0EBD10FF8D92880FF
:10338000A08D0028F4D0A08D401EA085002084F8D8
:103390002E0004210948FDF74DFDA08D0028E7D13E
:1033A000E07D0028E4D00320E07570BD70030020AC
:1033B00000100240620000202C260020E8010020BE
:1033C00070B518480068406A102185B21648FEF7AB
:1033D00049FB164C164938B1E088854209D24FF6B0
:1033E000FF72101A284405E0496A11488847E580B1
:1033F00070BD281AA28880B2B0EBD20FF8D9A08095
:10340000888D0028F4D0888D401E8885002081F8A2
:103410002E00888D0028EBD1C87D0028E8D003203D
:10342000C87570BD700300200010024062000020CB
:103430005C26002010B50446808D0844A085A08D30
:10344000002807D00120E075FEF71EFB2061002058
:1034500084F82E0010BD000010B56AB161B10023E0
:1034600008E000BF50F82340944201D1012010BD74
:103470005B1CDBB28B42F5D3002010BD10B5FFF70B
:103480000FFFBDE8104000F003B92DE9F0470DF142
:10349000280A04009AE8E002DDE9080CDDF838802B
:1034A0001BD021806260238118F0FF0184F838105E
:1034B00015D00021A172E172C4E9030CFEF7E4FA11
:1034C0006061FEF7E1FAA0610020E06184F820006D
:1034D000FEF7DAFA243484E8E102BDE8F08701213E
:1034E000E8E7704770472DE9F0410F46050078D0B6
:1034F0000024A04694E055F82400002872D00189E9
:103500004068FEF7AFFA55F82410C872FEF7BCFA0F
:10351000064655F82400C27A90F838108A4204D141
:10352000837A8B4201D0466174E08A423CD0837A30
:103530008B4239D1866155F824104869864201D3FF
:10354000301A02E0C043401C3044C86155F82400E2
:10355000C268C169914224D390F8201011B10229A8
:103560000ED057E0012180F8201055F82400C16AE0
:1035700009B10088884755F8241081F8208007E0B9
:1035800080F8208055F82400416B09B100888847F5
:1035900055F824008169416155F824008169416230
:1035A00038E08169416135E08A4231D14169711A5F
:1035B000C16155F82400026991422BD390F8201084
:1035C00011B102290FD025E0022180F8201055F812
:1035D0002400016B09B10088884755F82400466231
:1035E00018E020E01AE0816A79B14FF47A72B2FBF8
:1035F000F1F1426AB21A91420CD8466255F82400A1
:10360000016B39B10088884704E04FF0FF31F0E7E3
:1036100080F8208055F82400C17A8172641CA4B21D
:10362000BC42FFF468AFBDE8F08100001CB50E4954
:10363000072802D80022431C05E0A0F10802072A4F
:1036400009D80122C31FCDE900210E22002107481D
:10365000FDF7CDF81CBDA0F11002022AFAD8022213
:10366000A0F10F03EFE700007006002024250020E2
:1036700010B513210448FFF736FFBDE810400321C1
:103680000248FFF730BF0000CC2B0020CC2C0020DC
:103690002DE9F04F93B0214E0024DFF87490DFF84D
:1036A00074A0DFF874B00AA8274606F1B408119098
:1036B0000F200A904FF448700B900CA9012081E86C
:1036C000010E17488DF84070ADF81C4050F82400EA
:1036D000089013481C220C30119930F82400ADF8E2
:1036E00024006846FCF79CFE0DF11C0CC4EB041092
:1036F0009CE80E0006EB80000546FFF7C6FE48F882
:103700002450641CA4B2032CD2D313B0BDE8F08FB4
:1037100055370008253700083D370008182C0020D1
:103720000401002008B50221431C0091042200215D
:103730000148FDF733F808BD2425002008B5032112
:10374000431C0091042200210148FDF727F808BD21
:103750002425002008B50121431C009104220021EA
:103760000148FDF71BF808BD242500203EB5027C6A
:10377000FF24204B022A0CD05AB3012A28D1C26858
:103780001278CDE90024C28884880B46006821465F
:103790001CE00289521C92B20281C588AA4210D94B
:1037A00081880181C2681278CDE90024B3F81B201A
:1037B000ADF808205A7F8DF80A2000682A46029B3F
:1037C00004E0C3681B78CDE90034DDE701F088FC34
:1037D0003EBDC16800220978CDE90012B3F81B1084
:1037E000ADF80810597F8DF80A10C28881880068EA
:1037F000029BEBE73000002010B5029C0160828044
:10380000C3800021C460017402810149416110BD7F
:103810000D3F000830B5154800210278436806E0E6
:1038200053F82140A58A6D1C491CA582C9B28A4261
:10383000F6D800214278836807E000BF53F82140A2
:10384000658A6D1C491C6582C9B28A42F6D800217E
:1038500007E0C26852F82120D3885B1C491CD38042
:10386000C9B282788A42F4D830BD000050000020EE
:103870002DE9FF4F83B015460E460446DDE91420BE
:10388000DDE91291DDF844A04FF0010B57184FF01D
:10389000000830B1012839D194F82000012838D02F
:1038A0003EE094F82000012806D184F82080A4F896
:1038B0001480E68284F82180A08A884226D9E08A92
:1038C000A84219D2E06901F018FEA8B14B46524651
:1038D0002046069901F0FBFBCDE900A9E28A3146BA
:1038E0002046109B01F0FCFB204601F009F9A4F8EA
:1038F0001480E08A401CE082E08AA84206D3A08AB5
:10390000B84203D384F821B084F820B007B0BDE8F2
:10391000F08F84F82080A4F81480E58284F8218058
:10392000A08A8842F2D9E08AB042EFD9E06901F07A
:10393000E4FDA8B14B4652462046069901F0C7FB6C
:10394000CDE900A9E18A2A462046109B01F0C8FB78
:10395000204601F0D5F8A4F81480E08A401EE082E9
:10396000E08AB042CBD9D1E72DE9FC4104461646A6
:103970000F46DDE9081094F820200A9D012A0ED197
:10398000002284F82020CDE9001032463946204636
:1039900001F0A6FB32463946204601F017FA002D09
:1039A00002D0012084F82000BDE8FC812DE9F04F11
:1039B000DFF8D082B44CB54E98F80000B44D87B013
:1039C000FF27E8BB31784FF001098DE88202B5F896
:1039D0001500ADF80C00E87D8DF80E0042220021A4
:1039E000AC48039BFFF7C0FF2279FF23002106F1BB
:1039F0005000FCF7F4FD2279FF23002106F1680056
:103A0000FCF7EDFD2279FF23002106F18000FCF791
:103A1000E6FD2279FF23002106F19800FCF7DFFD87
:103A200031783B228DE88202B5F81500ADF80C0024
:103A3000E87D8DF80E00974800212430039B00E0BC
:103A400001E0FFF791FF98F80000012859D18F4855
:103A50002279FF2300215030FCF7C1FD8B482279E9
:103A6000FF2300216830FCF7BAFD88482279FF2344
:103A700000218030FCF7B3FD84482279FF23002128
:103A80009830FCF7ACFD4FF000094FF47A7A4FF014
:103A9000320BCDE9027BCDE904A930780190B5F86D
:103AA0000900ADF80000E87A8DF80200B5F81B00B7
:103AB000ADF81800687F8DF81A0042220021754881
:103AC000ED1C069BFFF7D4FECDE9027BCDE904A9EE
:103AD0003078019035F8020BADF8000015F8160BA0
:103AE0008DF8020035F8020BADF8180015F81D0925
:103AF0008DF81A0067483B2200212430069BFFF70F
:103B0000B7FE98F80000474602287CD14021624861
:103B1000FDF785F928B3B5F81B00ADF80000687F04
:103B20008DF8020000231A465A48009901F0CFFA96
:103B3000B5F81B00ADF80000687F8DF8020055480D
:103B400000231A462430009901F0C1FA514800F0D0
:103B5000D7FF5048243000F0D3FF40214E48FDF7F6
:103B600065F9FDF791FFF168B046401A64282ED937
:103B7000DFF81891002609F1100909F1200A00BFA9
:103B8000B5F80900ADF80000E87A8DF8020059F8A0
:103B900026000099FFF7EAFDB5F80300ADF8000034
:103BA00068798DF802005AF826000099FFF7DEFDCB
:103BB000761CF6B2082EE3D3364800F0A1FF354854
:103BC000243000F09DFFFDF75FFFC8F80C002F4880
:103BD0002279FF2300215030FCF701FD2B48227988
:103BE000FF2300216830FCF7FAFC28482279FF23E4
:103BF00000218030FCF7F3FC24482279FF230021C8
:103C00009830FCF7ECFC3878032816D14021224884
:103C1000FDF705F988B140211F48FDF707F91D4858
:103C200000F03AFF1B48243000F036FF194800F03E
:103C300067FF1848243000F063FF3878042816D155
:103C400040211548FDF7EBF888B140211248FDF7F7
:103C5000EDF8104800F020FF0E48243000F01CFF63
:103C60000C4800F04DFF0B48243000F049FF387835
:103C7000012804D007B0BDE8F04FFFF7A1BA07B0A4
:103C8000BDE8F08FDC0100204C2700201C01002043
:103C90003000002060480020E40100201FB590495A
:103CA0000124A1F1C6028D48CDE90021CDE902042D
:103CB000422300228B498C4801F066F887488B49E3
:103CC000801CA1F1B202CDE90204CDE900218648B1
:103CD0003B2304228349243001F056F87F48844B6B
:103CE000002284494E300094FCF759FC02200090D9
:103CF000814C7A48234604227E496630FCF74FFC0B
:103D0000A01500907548234600227C497E30FCF7C0
:103D100046FC601500907148234600227849963091
:103D2000FCF73DFC7049002001F012FA6E490020BA
:103D3000243101F00DFA694901204E3101F008FAF1
:103D400066490120663101F003FA644901207E31A1
:103D500001F0FEF961490120963101F0F9F962495B
:103D6000684C0723002201F148000094FFF744FD4E
:103D70005D490F23082201F160000094FFF73CFD2C
:103D800059491723102201F178000094FFF734FD00
:103D900055491F23182201F190000094FFF72CFDD4
:103DA00051492323202201F5E4700094FFF724FDFC
:103DB0004D492B23242201F1A8000094FFF71CFD9C
:103DC000494931232C2201F1C0000094FFF714FD72
:103DD00045493723322201F1D8000094FFF70CFD4A
:103DE00041493D23382201F1F0000094FFF704FD22
:103DF0003D4941233E2201F5F0700094FFF7FCFCA1
:103E0000394907232431002201F1E4000094FFF72F
:103E1000F3FC35490F232431082201F1FC00009402
:103E2000FFF7EAFC304915232431102201F58A708E
:103E30000094FFF7E1FC2C491B232431162201F5E5
:103E400096700094FFF7D8FC2749232324311C22C5
:103E500001F5A2700094FFF7CFFC23492A232431F7
:103E6000242201F5AE700094FFF7C6FC1E493223F0
:103E700024312B2201F5BA700094FFF7BDFC1A49DA
:103E80003A232431332201F5C6700094FFF7B4FCC5
:103E90001D4C00231A4634F81B0FADF80000A07823
:103EA0008DF802001048009901F011F92088ADF852
:103EB0000000A0788DF802000B4800231A46243039
:103EC000009901F004F9084800F01AFE04B0064811
:103ED000BDE81040243000F013BE00001E01002099
:103EE0009E2D0020E002002060480020003C0020C1
:103EF000000002402803002000040240B803002014
:103F0000000400204C270020300000207CB504462F
:103F1000D0B2E2680B461278CDE90020A588E2888D
:103F20002946206801F0DCF8E288A188206802B008
:103F3000BDE8704000F04ABFF0B503460D46408929
:103F400019891446884201D30220F0BD294618463B
:103F500000F053F808B10120F0BD0020024608210E
:103F60001E8906E01F6801EB001C17F80C7027B1D2
:103F7000401C8642F6DC0320F0BD1F6801EB0011F7
:103F800001267E54196811EB0010F4D005704460CE
:103F9000C260596811B9586004E01146CA68002A25
:103FA000FBD1C8605889401C58810020F0BD0160D9
:103FB0000021416002814181704710B504460A46E4
:103FC000416863890020A3B9022010BD0B78934299
:103FD0000DD148B1CA68C2602046FDF703F9608977
:103FE000401E6081002010BDC8686060F4E708468C
:103FF000C9680029EAD1012010BD406805E00278B7
:104000008A4201D101207047C0680028F7D170476B
:104010000D4808B5016841F40011016000680022F4
:1040200000F40010009011460F20FDF7D1FD0F2085
:10403000FDF7C0FD002211461020FDF7C9FDBDE8C7
:1040400008401020FDF7B6BD303802402DE9F0439E
:1040500087B014216846FCF73FFA6A4800240168DB
:1040600041F010010160016801F010010591016843
:1040700041F004010160016801F00401059101684B
:1040800041F080010160016801F080010591016843
:1040900041F001010160016801F001010591016831
:1040A00041F002010160016801F00201059101681F
:1040B00041F0080101600068534F00F00800012240
:1040C000059051033846FDF7DAFC00221C213846E2
:1040D000FDF7D5FCDFF83481002210214046FDF7C2
:1040E000CEFCDFF82C910022F8214846FDF7C7FCF2
:1040F00064204FF48816CDE90006464D69460294C7
:104100002846FDF7B7FB182000904FF44410CDE986
:10411000010469462846FDF7ADFB42F21C00009001
:104120000125CDE90154694638460394FDF7A2FB09
:104130000320CDE90006694602943846FDF79AFB54
:1041400010200090CDE90154694640460394FDF7E4
:1041500091FB4FF2C000CDE9000469462E4802945D
:10416000FDF788FB4FF60170CDE90004694648462B
:104170000294FDF77FFB4FF47070CDE900046946AF
:1041800038460294FDF776FB4FF4C850CDE90004A1
:10419000694640460294FDF76DFBF8200090CDE99A
:1041A0000154694648460394FDF764FB002211461A
:1041B0000620FDF70DFD0620FDF7FCFC0022114650
:1041C0000820FDF705FD0820FDF7F4FC002211464C
:1041D0000920FDF7FDFC0920FDF7ECFC002211464B
:1041E0000A20FDF7F5FC0A20FDF7E4FC0022114649
:1041F0001720FDF7EDFC1720FDF7DCFC07B0BDE84C
:10420000F083000030380240000802400000024005
:10421000000C02400010024000040240094810B5A2
:10422000074901600521416040F6B8318160FDF722
:1042300031FC002803D0BDE81040FCF7EEBD10BDF6
:1042400000300040EC0100200F4810B50D4901601E
:104250004FF48271416000218160C1604FF40072AF
:104260000161C0E90512C1610162416281620A21F6
:10427000C162FDF789FF002803D0BDE81040FCF7BC
:10428000CCBD10BD00300140F801002010B588B051
:104290001C216846FCF720F91548144900240160E8
:1042A000A721C0E9011440F2E731C0E903148021DD
:1042B0008161FEF781F808B1FCF7AFFD0C48FEF70D
:1042C000FDFA08B1FCF7A9FD6020CDE900040294D5
:1042D0000022694606480494FEF78AFA08B1FCF702
:1042E0009CFD0348FEF7DEF908B010BD0044014014
:1042F000B803002010B588B01C216846FCF7ECF824
:104300001548144900240160A721C0E9011440F2B6
:10431000E731C0E9031480218161FEF74DF808B14F
:10432000FCF77BFD0C48FEF7C9FA08B1FCF775FDF8
:104330006020CDE9000402940022694606480494F6
:10434000FEF756FA08B1FCF768FD0348FEF7AAF934
:1043500008B010BD004801400004002010B596B020
:1043600000240F9410941194129413941C21684605
:104370001494FCF7B1F8202107A8FCF7ADF83448F5
:104380003249C0E900144FF6FF71C0E902410461EF
:1043900044618461FEF710F808B1FCF73EFD4FF46C
:1043A00080500F900FA92A48FEF70CF908B1FCF7CE
:1043B00034FD2748FEF782FA08B1FCF72EFD13946E
:1043C00013A923481494FDF7AFFF08B1FCF725FDAE
:1043D0006020CDE900040294039404940594002223
:1043E00069461B480694FEF703FA08B1FCF715FD71
:1043F000042269461648FEF7FBF908B1FCF70DFDEB
:10440000082269461248FEF7F3F908B1FCF705FDEA
:104410000C2269460E48FEF7EBF908B1FCF7FDFCEB
:104420000794089409944FF400500A94CDE90B4086
:1044300007A907480E94FDF74DFF08B1FCF7EDFC06
:104440000348FEF72FF916B010BD00000000014030
:104450005002002010B58EB00024079408940994EF
:104460000A940B941C2168460C94FCF735F82848F4
:104470004FF08041016040F21F31C0E9011440F665
:104480003301C0E9031480218161FDF795FF08B174
:10449000FCF7C3FC4FF48050079007A91C48FEF7B7
:1044A00091F808B1FCF7B9FC1948FEF707FA08B112
:1044B000FCF7B3FC0B940BA915480C94FDF734FFE3
:1044C00008B1FCF7AAFC602000909D20019002201A
:1044D00002900022694604940D48FEF789F908B15C
:1044E000FCF79BFC0422694609480194FEF780F919
:1044F00008B1FCF792FC082269460548FEF778F9F6
:1045000008B1FCF78AFC0248FEF7CCF80EB010BDEB
:104510009802002010B58EB00024079408940994E6
:104520000A940B941C2168460C94FBF7D5FF224893
:10453000204901600621C0E901140E21C0E90314DD
:1045400080218161FDF738FF08B1FCF766FC4FF46C
:104550008050079007A91848FEF734F808B1FCF717
:104560005CFC1548FEF7AAF908B1FCF756FC0B9461
:104570000BA911480C94FDF7D7FE08B1FCF74DFCD0
:104580006020CDE900040294002269460A480494A0
:10459000FEF72EF908B1FCF740FC042269460648F4
:1045A000FEF726F908B1FCF738FC0348FEF77AF865
:1045B0000EB010BD00040040E002002010B58EB027
:1045C00000240794089409940A940B941C216846CB
:1045D0000C94FBF781FF234821490160A721C0E922
:1045E000011440F2E731C0E9031480218161FDF735
:1045F000E3FE08B1FCF711FC4FF48050079007A9C7
:104600001848FDF7DFFF08B1FCF707FC1548FEF777
:1046100055F908B1FCF701FC0B940BA911480C9457
:10462000FDF782FE08B1FCF7F8FB6020CDE900043D
:104630000294002269460B480494FEF7D9F808B1A9
:10464000FCF7EBFB042269460648FEF7D1F808B1F7
:10465000FCF7E3FB0348FEF725F80EB010BD0000A1
:10466000000C0040280300201CB500240F480094D3
:104670000D49019401605321C0E901144FF6FF7107
:10468000C16080218161FDF797FE08B1FCF7C5FB91
:104690000094694605480194FDF746FE002801D0C4
:1046A000FCF7BBFB1CBD00000014004070030020A1
:1046B0000C4810B50A4901604FF4E1314160002116
:1046C00081600C22C160C0E904128161C161FEF702
:1046D00011FC002803D0BDE81040FCF79EBB10BDC4
:1046E00000500040080500200C4810B50A49016040
:1046F0004FF4E1314160002181600C22C160C0E9CA
:1047000004128161C161FEF7F5FB002803D0BDE80A
:104710001040FCF782BB10BD001001405005002086
:104720000C4810B50A4901604FF4E13141600021A5
:1047300081600C22C160C0E904128161C161FEF791
:10474000D9FB002803D0BDE81040FCF766BB10BDC4
:10475000004800409805002038B5FCF793FCFBF7B3
:104760009FFFFCF7FFF9FEF789FEFFF797FA08486D
:10477000002400948368042202210648FCF70EF806
:1047800000230322022103480094FCF707F838BDF8
:104790004C270020A825002010B5FBF7EDFF164898
:1047A000FDF7A7F9FCF756FC1348FDF7A2F9FEF751
:1047B0005FFF1148FDF79DF9FFF7F8F80E48FDF788
:1047C00098F9FCF795F80C48FDF793F900F038F8E4
:1047D0000948FDF78EF9FDF757F9084C2168401A92
:1047E000B0F5FA7F07D94FF400510548FDF73FF9BE
:1047F000FDF74AF9206010BDEC010020E001002027
:1048000000080240FEE700002DE9F0410B4F7D68F3
:10481000FDF73AF9064600240AE06868301AFA28DB
:1048200003D929780548FFF7C8FBED68641CE4B29A
:104830007889A042F1D8BDE8F08100007C06002014
:104840007CB54FF4805421464848FCF7E8FA58B14B
:10485000012000900323042200214548FBF79EFF1E
:1048600021464248FCF7E2FA4FF4006529463F48EA
:10487000FCF7D5FA002450B100230D2219463C481C
:104880000094FBF78BFF29463848FCF7CFFA01214B
:104890003648FCF7C4FA374D58B1002301221946B7
:1048A0003348CDE90045FBF7A2FF01212F48FCF773
:1048B000BDFA02212D48FCF7B2FA58B100230222BA
:1048C00019462B48CDE90045FBF791FF0221274807
:1048D000FCF7ACFA08212548FCF7A1FA264E58B19E
:1048E000CDE90045B38D072200212148FBF77FFF6A
:1048F00008211E48FCF79AFA10211C48FCF78FFA91
:1049000060B11E48CDE90045038C082200211848FB
:10491000FBF76DFF10211548FCF788FA04211348B6
:10492000FCF77DFA50B10094B38D052200211048A8
:10493000FBF734FF04210D48FCF778FA4FF480456B
:1049400029460A48FCF76BFA50B100220C4B11467D
:1049500007480094FBF722FF29460448FCF766FA53
:1049600000F044FCBDE87C40FFF74EBFE8010020AA
:1049700024250020700600205C2600208C260020C4
:104980009C26350110B50468002061B104290CD0C3
:1049900008290CD0206463B1042B0DD01168082BBA
:1049A0000DD0086410BD6063F5E7A063F3E7E06332
:1049B000F1E71168486310BD1168886310BDC863D2
:1049C00010BDF0B5C568DDE9057C64267D43B5FB07
:1049D000F6F500240068BCF1000FADB20DD041B374
:1049E000042928D0082928D0046443B3042B29D0F3
:1049F0001068082B29D00564F0BD61B104290CD0E2
:104A000008290CD0056463B1042B0DD01068082B65
:104A10000DD00464F0BD4563F5E78563F3E7C56336
:104A2000F1E710684463F0BD10688463F0BDC463AF
:104A3000F0BD4463D9E78463D7E7C463D5E7106862
:104A40004563F0BD10688563F0BDC563F0BD10B56A
:104A5000C468006869B104290DD008290DD0046428
:104A60006BB1042B0FD01168D068082B0FD00864ED
:104A700010BD4463F4E78463F2E7C463F0E71168B0
:104A8000D068486310BD1168D068886310BDC863E2
:104A900010BDFEE77047000038B504460F480023FC
:104AA0001A46B0F81B10ADF80010407F8DF80200D8
:104AB0002046009900F00BFB208900EB4001E068E4
:104AC000FBF7E8FC2089C01D00EB4000C100206915
:104AD000BDE838400322FBF7D5BC000030000020C1
:104AE00010B5044608680068C00608D4D4E900017F
:104AF000FEF758F8E069BDE8104000F0F5BC10BDC5
:104B0000F0B490F822100A230324012906D00229C8
:104B10004ED0042974D0032973D028E1002543E046
:104B2000002205EB4501C668C2F10707765CFE402E
:104B3000F607066902EBC10702D026F8173001E03C
:104B400026F81740521C92B2082AECD308224E1CB9
:104B5000C768C2F10F0CBF5D27FA0CF7FF070769A2
:104B600002EBC10C02D027F81C3001E027F81C40F2
:104B7000521C92B2102AEBD310228E1CC768C2F1CD
:104B8000170CBF5D27FA0CF7FF07076902EBC10C92
:104B900002D027F81C3001E027F81C40521C92B2CA
:104BA000182AEBD36D1CADB20189A942B8D8DEE05A
:104BB000002545E0002205EB4501C668C2F1070764
:104BC000765CFE40F607066902EBC10702D026F8C4
:104BD000173001E026F81740521C92B2082AECD395
:104BE00008228E1CC768C2F10F0CBF5D27FA0CF7B4
:104BF000FF07076902EBC10C04D027F81C3003E063
:104C000022E06BE027F81C40521C92B2102AE9D334
:104C100010224E1CC768C2F1170CBF5D27FA0CF7B3
:104C2000FF07076902EBC10C02D027F81C3001E036
:104C300027F81C40521C92B2182AEBD36D1CADB25F
:104C40000189A942B6D892E0002543E0002205EB95
:104C500045018E1CC768C2F1070CBF5D27FA0CF72F
:104C6000FF07076902EBC10C02D027F81C3001E0F6
:104C700027F81C40521C92B2082AEBD30822C668BF
:104C8000C2F10F07765CFE40F607066902EBC1072A
:104C900002D026F8173001E026F81740521C92B2D5
:104CA000102AECD310224E1CC768C2F1170CBF5D4E
:104CB00027FA0CF7FF07076902EBC10C02D027F8AF
:104CC0001C3001E027F81C40521C92B2182AEBD38A
:104CD0006D1CADB20189A942B8D848E0002543E077
:104CE000002205EB45014E1CC768C2F1070CBF5DF1
:104CF00027FA0CF7FF07076902EBC10C02D027F86F
:104D00001C3001E027F81C40521C92B2082AEBD359
:104D10000822C668C2F10F07765CFE40F6070669F6
:104D200002EBC10702D026F8173001E026F8174041
:104D3000521C92B2102AECD310228E1CC768C2F10A
:104D4000170CBF5D27FA0CF7FF07076902EBC10CD0
:104D500002D027F81C3001E027F81C40521C92B208
:104D6000182AEBD36D1CADB20189A942B8D80189CC
:104D70004FF6FF72C91D01EB410102EAC10302694E
:104D800003C8F0BCFDF72EBE2DE9F0410DF11C0863
:104D9000044698E86100069FC4E900122381C4E933
:104DA00003700020A082E082208360830121E561FE
:104DB00084F8201084F8210084F82260284600F04E
:104DC00093FB2046BDE8F04100F06BB92DE9F041BE
:104DD00016460D46044600F064F994F822000A22B3
:104DE0000323012854D002287ED004287DD0032834
:104DF0007CD047E1002105EB4500E768C1F1070CD5
:104E00003F5C27FA0CF7FF07276901EBC00C02D0C3
:104E100027F81C2001E027F81C30491C89B208291A
:104E2000EBD3082110F10107D4F80CC0C1F10F0E2B
:104E30001CF807C02CFA0EFC5FEACC7CD4F810C03A
:104E400001EBC00E02D02CF81E2001E02CF81E3021
:104E5000491C89B21029E7D31021871CD4F80CC053
:104E6000C1F1170E1CF807C02CFA0EFC5FEACC7CCF
:104E7000D4F810C001EBC00E02D02CF81E2001E0C7
:104E80002CF81E30491C89B21829E7D36D1CADB22D
:104E9000B542AFD9F6E0002105EB4500E768C1F166
:104EA000070C3F5C27FA0CF7FF07276901EBC00CE2
:104EB00002D027F81C2001E027F81C30491C89B2D9
:104EC0000829EBD30821871CD4F80CC0C1F10F0EC0
:104ED0001CF807C02CFA0EFC5FEACC7CD4F810C09A
:104EE00001EBC00E06D002E026E077E0C8E02CF827
:104EF0001E2001E02CF81E30491C89B21029E3D392
:104F00001021471CD4F80CC0C1F1170E1CF807C0C3
:104F10002CFA0EFC5FEACC7CD4F810C001EBC00E7A
:104F200002D02CF81E2001E02CF81E30491C89B25A
:104F30001829E7D36D1CADB2B542ACD9A2E000216F
:104F400005EB450010F10207D4F80CC0C1F1070EC3
:104F50001CF807C02CFA0EFC5FEACC7CD4F810C019
:104F600001EBC00E02D02CF81E2001E02CF81E3000
:104F7000491C89B20829E7D30821E768C1F10F0C61
:104F80003F5C27FA0CF7FF07276901EBC00C02D042
:104F900027F81C2001E027F81C30491C89B2102991
:104FA000EBD3102110F10107D4F80CC0C1F1170E9A
:104FB0001CF807C02CFA0EFC5FEACC7CD4F810C0B9
:104FC00001EBC00E02D02CF81E2001E02CF81E30A0
:104FD000491C89B21829E7D36D1CADB2B542AED9D0
:104FE00050E0002105EB450010F10107D4F80CC09A
:104FF000C1F1070E1CF807C02CFA0EFC5FEACC7C4E
:10500000D4F810C001EBC00E02D02CF81E2001E035
:105010002CF81E30491C89B20829E7D30821E7681B
:10502000C1F10F0C3F5C27FA0CF7FF07276901EB72
:10503000C00C02D027F81C2001E027F81C30491CC6
:1050400089B21029EBD3102110F10207D4F80CC05B
:10505000C1F1170E1CF807C02CFA0EFC5FEACC7CDD
:10506000D4F810C001EBC00E02D02CF81E2001E0D5
:105070002CF81E30491C89B21829E7D36D1CADB23B
:10508000B542AED920894FF6FF71C01D00EB40003C
:1050900001EAC003D4E900012269BDE8F041FDF74F
:1050A000A1BC01894FF6FF7201EB410102EAC10187
:1050B000002304E0026922F81130491C89B20289F8
:1050C000D21D02EB4202B1EBC20FF3D370470CB515
:1050D000CDE900230B460289002100F001F80CBD48
:1050E0002DE9F8431F46DDE90886154681460C4642
:1050F00008E043463A4621464846009600F006F846
:10510000641CA4B2AC42F4D9BDE8F883F0B50589BB
:10511000059C8D421AD35C43D5B2654340F6F61325
:10512000B5FBF3F5C66801EB41017554C2F30725E1
:105130006543B5FBF3F5C2F307426243C7684E1CF3
:10514000B2FBF3F2BD55C068891C4254F0BD0000AB
:1051500070B50D0007D0244C38B101281FD00228AB
:105160002DD0042070BD012070BD21782A466068D2
:10517000FEF772F948BB20780C282BD26168012217
:1051800041F820502078616885F8202051F82000EF
:10519000C06900F0A9F92078401C207022E06178F5
:1051A0002A46A068FEF758F978B960780C2811D221
:1051B000A16841F820506078401C607012E0A1782E
:1051C0002A46E068FEF748F908B1022070BDA078D1
:1051D0000C2801D3032070BDE16841F82050A0786D
:1051E000401CA070002070BD500000202DE9F04749
:1051F000154F7C68FCF748FC064600254FF47A788A
:1052000007F698491AE06068301A404513D92078AB
:10521000C0EBC00109EB41010C4800F005FF6660DE
:105220002178C1EBC10209EB42004078032802D388
:105230000548FEF7C2FEE4686D1CEDB27889A8420D
:10524000E1D8BDE8F087000070060020242500208A
:105250000248052101604160816070474C270020B1
:10526000002803D00021C1800181418170470028BE
:1052700008D00289C1888A4201D283881A44511A0F
:10528000418188B2704781884089081A80B270478E
:10529000002817D0016082800021C18001810A4A64
:1052A000C2600A4A02610A4A42610A4A82610A4AA3
:1052B000C2610A4A02620A4A42620A4A82620A4A8F
:1052C000C262418170470000ED520008FB520008A5
:1052D0001754000877530008AD5300080D53000819
:1052E000875200086F5200086152000818B14089C7
:1052F00008B1002070470120704718B141898088AB
:10530000814201D101207047002070472DE9F04112
:10531000154688460446FFF7AAFF854200D9054690
:10532000A188E088091A8EB22168AE4201440BD3ED
:105330002A464046FBF72FF8E088A1882844B0FBB6
:10534000F1F201FB12000FE032464046FBF723F872
:10535000AA1B174608EB06002168FBF71CF8A0887B
:1053600097FBF0F100FB1170E0806089401B6081C9
:105370002846BDE8F08170B50D46040003D015B194
:10538000FFF7B4FF08B1002070BDE1882068405CE1
:105390002870E088A188401CB0FBF1F201FB1200EC
:1053A000E0806089401E6081012070BD2DE9F041E0
:1053B000154688460446FFF766FF854200D9054634
:1053C000A1882089091A8EB22168AE4208440BD305
:1053D0002A464146FAF7DFFF2089A1882844B0FB1E
:1053E000F1F201FB12000FE032464146FAF7D3FF1B
:1053F000AA1B174608EB06012068FAF7CCFFA08825
:1054000097FBF0F100FB11702081608928446081D6
:105410002846BDE8F08170B50D46040002D0FFF7C4
:105420006CFF08B1002070BD218920684554208997
:10543000A188401CB0FBF1F201FB120020816089C1
:10544000401C6081012070BD2DE9F0411646884660
:105450000446002500F10C073EE0626A211D384633
:105460009047C8B3207810B1012835D109E02079E0
:105470006178884230D104F14001685401202070E5
:1054800028E094F8610094F86010884204D204F196
:1054900040012279425400E025702079A1788842A9
:1054A00015D194F86120701E824210DB257004F142
:1054B00040014046521CFAF76EFFA26E1AB14146F7
:1054C0002046904718B1E16E09B14046884794F8EC
:1054D0006100401C84F86100A169384688470028B3
:1054E000BBD0BDE8F08170470188012903D00121BC
:1054F00001800846704700207047018819B10021DB
:105500000180012070470020704710B5C368142443
:105510005B1CB3FBF4F32D3253435A22B3FBF2F27C
:10552000006892B229B1042905D0082905D0026487
:1055300010BD426310BD826310BDC26310BDFCF795
:105540009EBA10B5FCF7DCFABDE81040FEF762B970
:1055500030B593B030216846FAF7BEFF14210CA88D
:10556000FAF7BAFF1F480025016841F08051016039
:10557000006800F0805011901B48016841F48041A0
:1055800001600068022400F480401190092000901E
:105590004FF4803001900120CDE90504800507908B
:1055A000192008904FF4A870CDE9090404200B904D
:1055B0006846FCF72BFC08B172B6FEE70CA90F2079
:1055C00081E831004FF4A0500F904FF480501090BC
:1055D00005210CA8FCF72EFB002801D072B6FEE7CF
:1055E00013B030BD403802400070004002480168EE
:1055F00041F470010160704788ED00E0F0B5026889
:10560000274B284D284E294F294C4FF0804C98426B
:1056100009D0604507D0A84205D0B04203D0B842B7
:1056200001D0A04204D122F0700E4A6842EA0E0274
:1056300098421BD0604519D0A84217D0B04215D06F
:10564000B84213D0A04211D01A4DA8420ED01A4D24
:10565000A8420BD0194DA84208D0194DA84205D038
:10566000184DA84202D0184DA84203D122F440752B
:10567000CA682A434D6922F080022A438D68C562B8
:105680000D688562984201D0A04201D10969016389
:10569000016841F004010160012141610260F0BD37
:1056A000000001400004004000080040000C0040E1
:1056B0000004014000400140004401400048014016
:1056C00000180040001C00400020004010B501F010
:1056D0001F030121046A99408C430462016A9A40C5
:1056E0001143016210BD10B5846B0121626A8242D0
:1056F00005D12177C069F8B984F83E101CE0A26A90
:10570000824206D102222277C069A8B984F83F10EC
:1057100012E0E26A824206D104222277C06958B9B7
:1057200084F8401008E0226B824205D108222277DB
:10573000C06908B984F841102046FDF7EDF8002053
:10574000207710BD10B5846B616A814201D10120C0
:105750000DE0A16A814201D1022008E0E16A8142A4
:1057600001D1042003E0216B814201D10820207780
:105770002046FDF7D2F80020207710BD10B5846BCD
:105780000121626A824203D1217784F83E1019E038
:10579000A26A824204D10220207784F83F1011E0EF
:1057A000E26A824204D10420207784F8401009E0A4
:1057B000226B824204D10820207784F8411001E056
:1057C00084F83D102046FCF76BFF0020207710BDC9
:1057D00010B5846842EA032224F47F440A4322433A
:1057E000826010BD826822F070020A4342F0070115
:1057F00081607047F0B5036A026A22F0010202621A
:1058000042688469124E24F073050C682C4323F01F
:1058100002058B682B430D4DA84201D0B04205D143
:1058200023F00807CB683B4323F00403A84201D0D0
:10583000B04205D14D6922F4407215438A692A436A
:1058400042608461496841630362F0BD0000014029
:1058500000040140F0B5026A036A23F010030362FA
:10586000436884690D6824F4E64444EA05248D689D
:1058700022F0200242EA05120F4D104EA84201D03C
:10588000B04206D1CF6822F0800242EA071222F02D
:105890004002A84201D0B04207D14D6923F44063D1
:1058A00043EA85038D6943EA85034360846149685F
:1058B00081630262F0BD000000000140000401406D
:1058C000F0B5026A036A23F4807303624368C46913
:1058D00022F4007224F073050C68124E2C438D687C
:1058E00042EA05220E4DA84201D0B04206D1CF684F
:1058F00022F4006242EA072222F48062A84201D028
:10590000B04207D14D6923F4405343EA05138D6932
:1059100043EA05134360C4614968C1630262F0BD94
:10592000000001400004014030B5046A026A22F41C
:10593000805202624268C3690D6823F4E64343EA79
:1059400005238D6824F4005444EA0534084DA84228
:1059500002D0084DA84204D14D6922F4804242EAA7
:1059600085124260C36149680164046230BD000071
:10597000000001400004014010B5036A046A24F0ED
:1059800001040462846924F0F00444EA021423F060
:105990000A020A438461026210BD10B5036A046AF8
:1059A00024F010040462846923F0A00324F47044FA
:1059B00044EA023243EA01118261016210BD10B56E
:1059C000806B0021C185FDF754F910BD01680C31D1
:1059D00051E8002F22F4907241E80023002BF5D10A
:1059E0000168143151E8002F22F0010241E8002340
:1059F000002BF5D1016B012909D101680C3151E867
:105A0000002F22F0100241E80023002BF5D12021C5
:105A100080F8421000210163704708B590F84210E9
:105A2000222901D0022008BD82684FF480539A4297
:105A300001D1016921B1816A9A421BD04AB10AE0C1
:105A40000268816A5268C2F308020A80816A891C6E
:105A500008E0026972B10268526802F07F020A70BF
:105A6000816A491C8162C18D491E0904090CC185E6
:105A700003D01BE002685268F1E70168CA6822F0AF
:105A80002002CA600168CA6822F48072CA60016894
:105A90004A6922F001024A61202180F84210002167
:105AA0004163026B012A03D0FDF70EFB002008BD05
:105AB000016301680C3151E8002F22F0100241E827
:105AC0000023002BF5D101680A68D20602D50A68C6
:105AD00049680091818DFDF7CBF8E7E770B5044682
